:1000000080319728E63008007E14803120007F0878
:10001000FB002100911E24282000911E242823008B
:100020001908F60021005308203E860001308700A1
:10003000760881000130F6007608D3071F30F600FD
:100040007608D305200091122100111C2B282000D6
:10005000111C2B2811102100921E3F282000921EF7
:100060003F287C183D2817082100D20020001608E0
:100070002100D100FC18FC157C14200092122100F4
:10008000121F53282000121F5328FC18512817084C
:100090002100CE00200016082100CD007C187C1520
:1000A000FC14200012132100911C5A282000911CDE
:1000B0005A2891102700951A961E92280130F600B2
:1000C0007608FD070630F6007608F0007D088A31D4
:1000D000A8228031F7007708FD007D080239F6007C
:1000E0000230F635FF3E031D71287635F70077089C
:1000F000F1007D080439F8000130F835FF3E031D9A
:100100007D287835F9007908F2007D080139FA0078
:100110000230FA35FF3E031D89287A358A313022B4
:10012000270096127B082000FF007E100900803116
:100130009928FC01FD01CD30840000308500093094
:100140008931AB218031203084000130850020309E
:100150008931AB21B1308400893085002100120043
:10016000D6001200D7001200D8001200D9001200E9
:10017000DA001200DB007E1020008031BF280B1354
:100180008B138A31C72280318931C821803189316E
:10019000D12180318931DB2180318A31E7228031E0
:1001A0008931E62180318931F32180318A315A2227
:1001B000803189319F2180310B178B13FC187C1CF7
:1001C000C12C7C1DF228210052082000A100210032
:1001D00051082000A00021004E082000A3002100AB
:1001E0004D080229FC1D182921004E082000A100FD
:1001F00021004D082000A000210052082000A3008B
:10020000210051082000A2008B31512380312000B1
:1002100020082100A600200021082100A700A73601
:10022000A60CA736A60C2608C5002708C600C701DD
:10023000FC01E8302000A0000330A1000030A20043
:10024000210045082000A300210046082000A4004A
:10025000210047082000A5008C31C32480312000F4
:1002600020082100C500200021082100C600200030
:1002700022082100C70038302000A000C730A100AC
:10028000FF30A200210045082000A30021004608FD
:100290002000A400210047082000A5008B312A235C
:1002A0008031200020082100C50020002108210005
:1002B000C600200022082100C700E8302000A0006E
:1002C0000330A1000030A200210045082000A30057
:1002D000210046082000A400210047082000A500B6
:1002E0008C31C3248031200020082100C50020006B
:1002F00021082100C600200022082100C700873104
:10030000C527803120006308E6006408E70065081F
:10031000E8008931BF218031200066082100AA0051
:10032000200067082100AB00200068082100AC0015
:1003300000302000D3000030D4004030D500003021
:10034000C300A030C4004030C50021002A082000AE
:10035000C60021002B082000C70021002C08200027
:10036000C8008531C625803120004308D6004408E6
:10037000D7004508D80086317A26803120005308FE
:100380002100D900200054082100DA00200055087F
:100390002100DB008E31EB26803121002008C200D5
:1003A0002108C3002208C4008031022080318A3134
:1003B00071228031200028082100B900200029087E
:1003C0002100BA0020002A082100BB0042082000BA
:1003D000C300210043082000C4002100440820007D
:1003E000C500210039082000C60021003A0820007D
:1003F000C70021003B082000C8008531C625803198
:10040000200043082100C800200044082100C90042
:10041000200045082100CA0000302000D3007F30B2
:10042000D4004330D500210048082000C30021003B
:1004300049082000C40021004A082000C50021000E
:1004400046082000BC00210045082000BB008A317E
:100450000E22803120003C08BE003B08BD008B31DD
:100460000823803120003D08C6003E08C7003F0831
:10047000C8008531C625803120004308D6004408D5
:10048000D7004508D80086317A26803120005308ED
:100490002100BC00200054082100BD0020005508A8
:1004A0002100BE0000302000D3007F30D400433054
:1004B000D500210048082000C30021004908200081
:1004C000C40021004A082000C50021004608200081
:1004D000B600210045082000B5008F317427803117
:1004E00020003608BE003508BD008B31082380315E
:1004F00020003D08C6003E08C7003F08C8008531FF
:10050000C625803120004308D6004408D70045089E
:10051000D80086317A268031200053082100BF00A0
:10052000200054082100C000200055082100C1000F
:1005300020008C11632B07308A3100228031053076
:100540002100CB000030CC00772B07308A3100220D
:1005500080315F302100CB00FF30CC004B088B3165
:10056000A923803121004C088B31A923803121003F
:100570004B088B31A9238031210042082000A000C4
:10058000210043082000A100210044084E2B073021
:100590008A3100228031FF302100CB00BB30CC00FB
:1005A0004B088B31A923803121004C088B31A923C2
:1005B000803121004B088B31A9238031210039087B
:1005C0002000A00021003A082000A10021003B08E3
:1005D0004E2B07308A31002280315F302100CB0062
:1005E000BB30CC004B088B31A923803121004C0853
:1005F0008B31A923803121004B088B31A923803115
:10060000210048082000A000210049082000A10086
:1006100021004A084E2B07308A31002280313F30BA
:100620002100CB00FF30CC004B088B31A923803157
:1006300021004C088B31A923803121004B088B31DC
:10064000A923803121003C082000A00021003D08A2
:100650002000A10021003E084E2B07308A310022E5
:10066000803147302100CB003A30CC004B088B3131
:10067000A923803121004C088B31A923803121002E
:100680004B088B31A923803121003F082000A000B6
:10069000210040082000A100210041082000A20004
:1006A0008E316426803120002108AF002008AE0082
:1006B0008C31102480312100A600A7012608CB0030
:1006C0002708CC00772B7D08003A03199B2A013AB2
:1006D0000319A52A033A0319C72A063A0319E92A76
:1006E000013A03190B2B033A03192D2B772B210009
:1006F0004B09A6004C09A700A60A0319A70A260859
:10070000053EA8000030273DA90028082904031948
:10071000932BFF308B31A923803101302100CB0294
:100720000030CC3B772B20008C1563308931A5211C
:100730008031210042082000A00021004308200051
:10074000A100210044082000A2000030A3000030D6
:10075000A4000030A5008C3146248031031CB72B47
:1007600021004208AD004308AE004408D12B21000F
:1007700042082000E600210043082000E700210095
:1007800044082000E8008931BF218031200066083C
:100790002100AD00200067082100AE00200068089D
:1007A0002100AF002D082000A10021002E0820000C
:1007B000A20021002F082000A3008C318224803168
:1007C00041308931A5218031210048082000A00056
:1007D000210049082000A10021004A082000A200B1
:1007E0000030A3000030A4000030A5008C31462466
:1007F0008031031C022C21004808B0004908B100D8
:100800004A081C2C210048082000E6002100490865
:100810002000E70021004A082000E8008931BF21BC
:100820008031200066082100B00020006708210008
:10083000B100200068082100B20030082000A100AB
:10084000210031082000A200210032082000A3006E
:100850008C318224803172308931A5218031210090
:100860003C082000A00021003D082000A10021003C
:100870003E082000A2000030A3000030A400003099
:10088000A5008C3146248031031C4D2C21003C08EE
:10089000B3003D08B4003E08672C21003C0820004E
:1008A000E60021003D082000E70021003E0820006E
:1008B000E8008931BF218031200066082100B300A3
:1008C000200067082100B400200068082100B5005E
:1008D00033082000A100210034082000A2002100DC
:1008E00035082000A3008C318224803152308931B8
:1008F000A521803121003F082000A00021004008F0
:100900002000A100210041082000A2000030A30027
:100910000030A4000030A5008C3146248031031C37
:10092000982C21003F08B6004008B7004108B22CBF
:1009300021003F082000E600210040082000E700D9
:10094000210041082000E8008931BF2180312000CA
:1009500066082100B600200067082100B7002000CB
:1009600068082100B80036082000A10021003708DF
:100970002000A200210038082000A3008C3182242E
:1009800080318B1705302100A8000F30A700F4300C
:10099000A600A60BC92CA70BC92CA80BC92CDD28B7
:1009A00020006308E9006408EA006508EB00031012
:1009B0006A0D6B0DEC006C08EF006608E900670833
:1009C000EA006808EB0003106A0D6B0DEC006C0880
:1009D000EE006F080319F82C6E086F020318FF2C45
:1009E0006F03FF3A6E07E90019306902031CFF2C00
:1009F0006608E3006708E4006808E50008006E0880
:100A0000031908006F086E0203180E2D6E03FF3ADB
:100A10006F07E90019306902031808000630E90081
:100A20006908ED00E51BED17E81B6D17E417FF30B3
:100A3000E305FF30E4050030E505E717FF30E60584
:100A4000FF30E7050030E8056E086F0203184A2DF5
:100A50000130E635E70DE80D890B292D0130EE0256
:100A60006E086F060319452D0130ED026D08073938
:100A70000319452D282D0130E536E40CE30C890BD4
:100A80003C2D0130E9006908EF076F086E06031975
:100A90006F2D3B2D6F086E0203186F2D0130E3356B
:100AA000E40DE50D890B4F2D0130EF026E086F0646
:100AB00003196B2D0130ED026D08073903196B2DF9
:100AC0004E2D0130E836E70CE60C890B622D013023
:100AD000E9006908EE076F086E06031D612DED1F22
:100AE000812DFF30E306FF30E406FF30E5060130DC
:100AF000E307003003180130E40700300318013029
:100B0000E5076D1F932DFF30E606FF30E706FF3047
:100B1000E8060130E607003003180130E70700302F
:100B200003180130E807ED016308E6076408E73DB4
:100B30006508E83DE81FAE2DFF30E606FF30E7060A
:100B4000FF30E8060130E607003003180130E70700
:100B5000003003180130E807ED01ED0A6608A00037
:100B60006708A1006808A2006F08E9006908A300EF
:100B70006D08EA006A08A4008D31FF2520002008D6
:100B8000E3002108E4002208E500080020004308F3
:100B9000C9004408CA004508CB0003104A0D4B0D9C
:100BA000CC004C08CD004D08031DDD2D0030C300E6
:100BB0000030C4000030C50008004608C9004708DE
:100BC000CA004808CB0003104A0D4B0DCC004C085E
:100BD000D2005208031DF32D0030C3000030C400C2
:100BE0000030C500080052087B3EC9004908CD0707
:100BF0004308C9004408CA004508CB001030CB3672
:100C0000CA0CC90C890BFF2D4908CC004C08D20036
:100C10004608C9004708CA004808CB001030CB3648
:100C2000CA0CC90C890B0F2E4908CC004C08D206FF
:100C30008030C9004908D205C417C717FF30C60560
:100C4000FF30C7050030C8050030CE000030CF00AF
:100C50000030D0000730C9004908D100431C362EAF
:100C60004608CE074708CF3D4808D03D0130C5367D
:100C7000C40CC30C890B372E0130C635C70DC80D07
:100C8000890B3D2E0130D102031D2E2E0930C900E3
:100C90004908D100431C522E4608CE074708CF3DD5
:100CA0004808D03D0130C536C40CC30C890B532E07
:100CB0000130D036CF0CCE0C890B592E0130D10229
:100CC000031D4A2E4E08A0004F08A1005008A200A4
:100CD0004D08C9004908A3005208CA004A08A400E8
:100CE0008D31FF2520002008C3002108C400220800
:100CF000C500080020005608D9005708DA00580837
:100D0000DB0003105A0D5B0DDC005C08E10061089C
:100D1000031D912E0030D3000030D4000030D500E8
:100D200008005308D9005408DA005508DB00031006
:100D30005A0D5B0DDC005C08E2006208031DA72E63
:100D40000030D3000030D4000030D500080000305F
:100D5000DE000030DF000030E00089306207D9009B
:100D60005908E1025608D9005708DA005808DB0094
:100D70001030DB36DA0CD90C890BB92E5908DC009F
:100D80005C08E2005308D9005408DA005508DB007B
:100D90001030DB36DA0CD90C890BC92E5908DC006F
:100DA0005C08E2068030D9005908E205D717FF3009
:100DB000D605FF30D7050030D805D417FF30D3054E
:100DC000FF30D4050030D5051830D9005908DD00B2
:100DD0000130DE35DF0DE00D890BE92E5508580294
:100DE000031DF82E54085702031DF82E530856020F
:100DF000031C012F5308D6025408D73B5508D83B93
:100E00005E140130D635D70DD80D890B022F013075
:100E1000DD02031DE82E5E08A0005F08A100600847
:100E2000A2006108D9005908A3006208DA005A0834
:100E3000A4008D31FF2520002008D3002108D40014
:100E40002208D5000800F000F01F302F20000C17FA
:100E5000000000000000000020000C130000382FEC
:100E600020000C17000020000C1300000000000000
:100E7000701F442F20000C1700000000000000002D
:100E800020000C1300004C2F20000C170000200045
:100E90000C13000000000000F01E582F20000C175B
:100EA000000000000000000020000C130000602F74
:100EB00020000C17000020000C13000000000000B0
:100EC000701E6C2F20000C170000000000000000B6
:100ED00020000C130000742F20000C1700002000CD
:100EE0000C13000000000000F01D802F20000C17E4
:100EF000000000000000000020000C130000882FFC
:100F000020000C17000020000C130000000000005F
:100F1000701D942F20000C1700000000000000003E
:100F200020000C1300009C2F20000C170000200054
:100F30000C13000000000000F01CA82F20000C176C
:100F4000000000000000000020000C130000B02F83
:100F500020000C17000020000C130000000000000F
:100F6000701CBC2F20000C170000000000000000C7
:100F700020000C130000080020000C1700002000C7
:100F80000C13000000000000080021009E171F3015
:100F90008D31A825873112302000C3008330C40072
:100FA0003F30C50021001C082000A90021001B08BB
:100FB0002000A8008A314522873120002808D3006C
:100FC0002908D4002A08D5000030D6008030D70088
:100FD0004430D80086317A26873120005308C60075
:100FE0005408C7005508C8008531C62520004308AD
:100FF000E3004408E4004508E50008008134BD34FE
:10100000C8349834B43492348234B934803490344F
:10133E002100D301D303D501D40108002000A2005F
:10134E0022088A311D220800640080010131890BB8
:10135E00AC290034D7342334BD3400344834C1347E
:10136E002000A000200823009A009E180800BC2927
:10137E002000680867046604031908008030E80638
:10138E000800220017149710171197119717171BA3
:10139E000800CE2921009E131E129E161E171E1027
:1013AE009E101E111D1408002000181398131816F5
:1013BE009812210011142000111018140800220098
:1013CE0012149210121292169217210092162000E9
:1013DE009212220091170800220014109410141279
:1013EE009412941721001217200012132200931743
:1013FE0008002000A400A41B0800FF308B31A92395
:10140E008A31FF302000A3002308A407022A2000FF
:10141E003B08FF3EB50000303C3DB6008F317427CF
:10142E0020003608BC003508BB0008002000A100D3
:10143E0002308931B7218A3132308931B7218A3170
:10144E00200021088931B7218A3103308931B72133
:10145E000800F3007308873123278A31710887311A
:10146E0023278A317208873123272000170821008D
:10147E00D000200016082100CF0008002000280808
:10148E00A0002908A100A2018E30AB002B08A300FA
:10149E00A4018D31FF2520002008A8002108A900F5
:1014AE002208AA00080022009D131E1023009E167B
:1014BE001E129D171D161E129D171E119F113330E1
:1014CE009B002000911E6E2A23001908682A210015
:1014DE00911608002000AF002F08AB00AC01AD0143
:1014EE002B08A0002C08A1002D08A2008E30AE0003
:1014FE002E08A300A4018D31FF2520002008A8008E
:10150E002108A9002208AA0008002000A401A501B4
:10151E00201C952A2208A4072308A53D0130A235D8
:10152E00A30D890B962A0130A136A00C890B9B2A9C
:10153E0020082104031D8F2A2508A1002408A000DD
:10154E000800F3000830F1007108F400F50173088B
:10155E00F1000730F136890BB12A75357104F200AE
:10156E007208F5000310F30D70087502031CC12AF2
:10157E007008F5020130F402031DAE2A750808004A
:10158E0020008C01073023008C00073021008C00D6
:10159E0020008D01303023008D003A3021008D0067
:1015AE009513083024008D002100191099109911FF
:1015BE001916991619179917270095168B150800E5
:1015CE0022001D1421000D14FF3020009B0030302E
:1015DE00250093000C302000A00020082500930465
:1015EE007F309100131693161E149E102000931038
:1015FE0028001710971017152000931021000D10BA
:10160E0008002000C201BE1F132BBD09BE09BD0A72
:10161E000319BE0AC201C20A3D08A0003E08A1007D
:10162E00A2018E30C0004008A3004208C10041084C
:10163E00A4008D31FF2520002008BD002108BE002A
:10164E002208BF00080000302000A6000030A700CE
:10165E000030A800201C392B2308A6072408A73D1C
:10166E002508A83D0130A335A40DA50D890B3A2BF5
:10167E000130A236A10CA00C890B402B22082104AC
:10168E002004031D312B2608A0002708A1002808DE
:10169E00A2000800200023082102031D582B220857
:1016AE0020020318682B2009A4002109A500A40A12
:1016BE000319A50A22082407A0002308253DA1002E
:1016CE0008002009A4002109A500A40A0319A50AEF
:1016DE0022082407A6002308253DA7002608FF3E62
:1016EE00A000FF30273DA1000800200020082104A3
:1016FE000319A42BA501A50AA11B8F2B0130A03520
:10170E00A10D890B862B0130A4002408A507832B7D
:10171E0021082302031D952B20082202031C9B2B5C
:10172E002008A2022108A33B0130A136A00C890B90
:10173E009C2B0130A502031D8F2B2308A10022082C
:10174E00A00008002000A100A20108302202031808
:10175E0008002108A000220AB52BA036890BB42B55
:10176E00201CBC2B20008C17BE2B20008C130000DD
:10177E00000000000000000000000000000000005B
:10178E00000020000C160000000000000000000009
:10179E000000000000000000000020000C120130CC
:1017AE00A0002008A207AC2B2000A501A60120084E
:1017BE00210403190B2CA701A70AA11BF02B013042
:1017CE00A035A10D890BE72B0130A4002408A70733
:1017DE00E42B0130A535A60D890BF12B2108230230
:1017EE00031DFB2B20082202031C022C2008A20240
:1017FE002108A33B25140130A136A00C890B032C24
:10180E000130A702031DF02B2608A1002508A00019
:10181E0008002000B1012E082F040319442C0A30B1
:10182E00A0000030A1002F08A3002E08A2008B31CB
:10183E007C238C3120002108850020088400FE3096
:10184E0084078730853D00088B31A9238C310A30FF
:10185E002000A0000030A1002F08A3002E08A20037
:10186E008B31DB238C3120002108AF002008AE0025
:10187E000130B0003008B107122C310808002000EA
:10188E00A21F5D2C2009A6002109A7002209A8008D
:10189E00A60A0319A70A0319A80A00302607A000F2
:1018AE000030273DA1008030283DA200A51F732CDB
:1018BE002309A6002409A7002509A800A60A0319D2
:1018CE00A70A0319A80A00302607A3000030273DF7
:1018DE00A4008030283DA5008030A2068030A506E9
:1018EE0025082202031D080024082102031D0800FA
:1018FE0023082002080021302000A4002408A7009D
:10190E0002308931B7218C3136308931B7218C3193
:10191E002000270886008701403FA400413FA50014
:10192E00423FA6001030A636A50CA40C890B9A2CAB
:10193E0024088931B7218C312000270886008701C1
:10194E00403FA400413FA500423FA6000830A63606
:10195E00A50CA40C890BAE2C24088931B7218C312F
:10196E00200027088600870101088931B7218C31B4
:10197E0003308931B721080000302000A700003065
:10198E00A8000030A9002208210420040319012D0B
:10199E00AA01AA0AA21BDE2C0130A035A10DA20DB0
:1019AE00890BD42C0130A6002608AA07D12C0130B1
:1019BE00A735A80DA90D890BDF2C22082502031DC2
:1019CE00EE2C21082402031DEE2C20082302031CFA
:1019DE00F72C2008A3022108A43B2208A53B2714BC
:1019EE000130A236A10CA00C890BF82C0130AA02F2
:1019FE00031DDE2C2708A0002808A1002908A2003C
:101A0E00080020003008A1002F08A0003008A30015
:101A1E002F08A2008A318C228D3120002108B400BB
:101A2E002008B3000230A600FC30A7003408A10045
:101A3E003308A0003008A3002F08A2008A318C22A0
:101A4E008D3120002108A9002008A8008D315625CF
:101A5E008D3120002609B1002709B200B10A031901
:101A6E00B20A0230A6000030A7003008A1002F08ED
:101A7E00A0000330A2000030A3008A318C228D31E9
:101A8E0020002108A9002008A8008D31562520002D
:101A9E0031082607AF003208273DB00008002000AD
:101AAE00AC01A71F612DA609A709A60A0319A70A4B
:101ABE00AC01AC0AA91F6C2DA809A909A80A031923
:101ACE00A90A0130AA002A08AC06AD01AE0126080B
:101ADE00270403199B2DAB01AB0AA71B802D0130E8
:101AEE00A635A70D890B772D0130AA002A08AB0762
:101AFE00742D0130AD35AE0D890B812D27082902CD
:101B0E00031D8B2D26082802031C922D2608A802E1
:101B1E002708A93B2D140130A736A60C890B932D4F
:101B2E000130AB02031D802D2C080319A32DAD0926
:101B3E00AE09AD0A0319AE0A2E08A7002D08A6009D
:101B4E0008002000A100211CAF2D21001D15B12D74
:101B5E0021001D1120002108A00001300310A01B40
:101B6E000314A00C890BB52D201CC02D21009D1532
:101B7E00C22D21009D1120002108A000023003106B
:101B8E00A01B0314A00C890BC62D201CD12D2100E7
:101B9E001D16D32D21001D1220002108A000033098
:101BAE000310A01B0314A00C890BD72D201CE22DB3
:101BBE0021009D16E42D21009D1220002108A00079
:101BCE0004300310A01B0314A00C890BE82D201C5D
:101BDE00F32D21001D17F52D21001D130D302000B2
:101BEE00A000A00BF82D21009D149D1C0800FC2DBB
:101BFE00200023080319082E220821042004031DA7
:101C0E00192E0030A0000030A1000030A200080004
:101C1E000130A5002508A3070130A236A10CA00CA7
:101C2E00890B142EFE3022050319322E0F2E013091
:101C3E00A5002508A3070130A007003003180130C6
:101C4E00A107003003180130A2070130A236A10C03
:101C5E00A00C890B2D2EFF30220503193F2E1E2EB0
:101C6E000130A3020130A035A10DA20D890B3A2E31
:101C7E00A11B452E023023020318372E23184D2E9A
:101C8E00FF30A0057F30A105FF30A2050310A30C85
:101C9E002308A500A601A7011030A535A60DA70D96
:101CAE00890B542E2508A0042608A1042708A20497
:101CBE00240803190800A217080020002008A40019
:101CCE002108A5002208A6000310250D260DA70049
:101CDE002708AD002D08031D7D2E0030A300003017
:101CEE00A2000030A1000030A00008002008A400CF
:101CFE002108A5002208A6001730A636A50CA40CB4
:101D0E00890B842E2408A7002708A800A117FF30EE
:101D1E00A005FF30A1050030A2052008A90021086A
:101D2E00AA002208AB00AC018E30AD02AD1FBB2E57
:101D3E002D08803A8F3E0318AD2E0030A3000030E0
:101D4E00A2000030A1000030A00008000130AC3627
:101D5E00AB0CAA0CA90C890BAE2E0130A4002408E2
:101D6E00AD070319D42EAD2E18302D02031CD12E23
:101D7E000030A3000030A2000030A1000030A0000F
:101D8E0008000130A935AA0DAB0DAC0D890BC92E7B
:101D9E000130AD022D08031DC82E28080319E22EAE
:101DAE00A909AA09AB09AC09A90A0319AA0A0319B8
:101DBE00AB0A0319AC0A2C08A3002B08A2002A08B0
:101DCE00A1002908A000080021009E1707308D31C0
:101DDE00A8258E31210056082000E3002100570867
:101DEE002000E400210058082000E5000030D30058
:101DFE008030D4004430D5000030C300A030C40081
:101E0E004030C50021001C082000A90021001B083D
:101E1E002000A8008A3145228E3120002808C600F5
:101E2E002908C7002A08C8008531C6258E31200032
:101E3E004308D6004408D7004508D80086317A26D4
:101E4E008E3120005308E6005408E7005508E800DC
:101E5E008431D0248E31200063082100A30020009D
:101E6E0064082100A400200065082100A50059087F
:101E7E002000E30021005A082000E40021005B0846
:101E8E002000E5000030C300A030C4004030C50083
:101E9E00210023082000C600210024082000C700CE
:101EAE00210025082000C8008531C6258E3120006E
:101EBE004308E6004408E7004508E8008431D024D2
:101ECE00200063082100A000200064082100A1006A
:101EDE00200065082100A200080020003608803A84
:101EEE00B70083303702031D7E2FFD303502031CF1
:101EFE00862F04302000B507FC30B63D742F20002D
:101F0E003608803AB70082303702031D902FFE301C
:101F1E003502031CAF2F20003509B7003609B80073
:101F2E00B70A0319B80A3708FC3EAF000330383D34
:101F3E00B0008D31082520002F09B9003009BA00F4
:101F4E00B90A0319BA0A3908B5003A08B6000800EA
:101F5E0020003608803AB70081303702031DB92FB2
:101F6E00FF303502031CD12F20003508023EAF0092
:101F7E00FE30363DB0008D31082520002F09B70008
:101F8E003009B800B70A0319B80A3708B50038087F
:101F9E00B600080020003608803AB70081303702BC
:101FAE00031DDB2F00303502031CF32F20003509F3
:101FBE00B7003609B800B70A0319B80A3708FE3E4B
:101FCE00AF000130383DB0008D31082520003008BB
:101FDE00B6002F08B500080020003608B0003508FE
:101FEE00AF008D31082520003008B6002F08B5004F
:021FFE000800D9
:020000040001F9
:04000E00E4C9FFDD65
:00000001FF
