:0400000080315528CE
:100008007E14803120007F08F1002100911E2228F3
:100018002000911E222823001908F0007A08203EAB
:1000280086008701700881000130F0007008FA0727
:100038001F30F0007008FA05200091122100111CF1
:1000480029282000111C292811102100921E392866
:100058002000921E3928421838281708D10016089F
:10006800D000C218C215421492122100121F49284A
:100078002000121F4928C21848281708CF00160860
:10008800CE0042184215C21412132100911C5028A8
:100098002000911C5028911071082000FF007E104C
:1000A800090080315728FA01FB0120308400003014
:1000B800850024308231CB2280318231D7228031B1
:1000C800CE008231D8228031CF008231D9228031CE
:1000D800D0008231DA22D1007E10200080317428CD
:1000E8000B138B138231492280318231B422803143
:1000F8008231A92280318231C422803182312A2280
:10010800803182319C22803182318F22803182314C
:10011800662280318231D12280310B178B17200063
:10012800C218421C9328421DA1285108F300500808
:10013800F2004F08F5004E08AA28C21DB5284F083E
:10014800F3004E08F2005108F5005008F400813120
:10015800A421803172082000CA007308CB00CC01AA
:10016800CD01C2010030F5000030F4000030F3008A
:100178007D30F2004D08F9004C08F8004B08F700F4
:100188004A08F6008131D821803175082000CD0059
:100198007408CC007308CB007208CA000030F50060
:1001A8000030F4000330F300E830F2004D08F900A5
:1001B8004C08F8004B08F7004A08F6008131022184
:1001C800803175082000CD007408CC007308CB007E
:1001D8007208CA008730F3008230F40082310A22A4
:1001E800803120004D08F6004C08F5004B08F4005B
:1001F8004A08F300813155218031932800302000CE
:10020800C8000030C7000030C6000030C5007508BF
:1002180074047304720403194C29C901C90AF51B33
:1002280021290130F235F30DF40DF50D890B16294E
:100238000130C4004408C90713290130C535C60D6B
:10024800C70DC80D890B222975087902031D3629A7
:1002580074087802031D362973087702031D3629AE
:1002680072087602031C41297208F6027308F73BEC
:100278007408F83B7508F93B45140130F536F40C61
:10028800F30CF20C890B42290130C902031D212904
:100298004808F5004708F4004608F3004508F2004E
:1002A800080002308231BD22813135308231BD22D1
:1002B800813173082000C4007408C5007508C600A1
:1002C8007608C7001830C800C737C60CC50CC40C60
:1002D800C80B682944088231BD2281317308200087
:1002E800C4007408C5007508C6007608C700103039
:1002F800C800C737C60CC50CC40CC80B7D294408F8
:100308008231BD22813173082000C4007408C50001
:100318007508C6007608C7000830C800C737C60C7D
:10032800C50CC40CC80B922944088231BD22813106
:1003380073088231BD22813103308231BD22080029
:100348008B132000D001D101CE01CF018B17750886
:100358007302031DB129740872020318C0297209B7
:10036800F6007309F700F60A0319F70A7408760706
:10037800C4007508773DD2297209F6007309F700A1
:10038800F60A0319F70A74087607F8007508773D26
:10039800F9007808FF3EC400FF30793DC5004508E4
:1003A800F3004408F200080000302000C7000030C5
:1003B800C6000030C5000030C400721CEC29760865
:1003C8002000C4077708C53D7808C63D7908C73DB1
:1003D8000130F635F70DF80DF90D890BED290130CF
:1003E800F536F40CF30CF20C890BF4297508740437
:1003F80073047204031DE12920004708F50046082C
:10040800F4004508F3004408F20008000230823185
:10041800BD22823131308231BD228231730884009D
:100428007408850012000319262A730884007408CA
:10043800850000088231BD2282310130F307003087
:10044800F43D122A03308231BD22080022001D1417
:1004580021000D14FF3020009B0030302500930050
:100468000C30F200720893048E309100131293122C
:100478001E149E10200093102800171097101715AF
:100488002000931021000D10080020008C01073077
:1004980023008C00073021008C0020008D013030B3
:1004A80023008D003A3021008D0095130830240078
:1004B8008D002100191099109911191699161917FC
:1004C8009917080022009D131E1023009E161E1265
:1004D8009D171D161E129D171E119F1133309B006C
:1004E8002000911E7A2A23001908742A21009116E7
:1004F80008008134BD34C8349834B434923482341A
:10050800B9348034903464346934663466342F34B2
:100518007534733400342200141094101412941299
:1005280094172100121720001213220093170800B5
:10053800220012149210121292169217210092168B
:100548002000921222009117080020001813981317
:100558001816981221001114200011101814080000
:1005680021009E131E129E161E171E109E101E118D
:100578000800F200720823009A009E180800C12A99
:100588002200171197119717171B0800C82A640033
:1005980080010131890BCC2A0034FA01FA03FB01EE
:0E05A8002000C3010800FF34FF34FF34FF348D
:020000040001F9
:04000E00E4C9FFDD65
:00000001FF
