:1000000080315528E63008007E14803120007F08BA
:10001000F1002100911E22282000911E2228230099
:100020001908F0007A08A03E860087017008810058
:100030000130F0007008FA070730F0007008FA0588
:10004000200091122100111C29282000111C2928B0
:1000500011102100921E39282000921E392869189B
:1000600038281708E8001608E700E918E9156914A8
:1000700092122100121F49282000121F4928E91856
:1000800048281708E4001608E30069186915E91400
:1000900012132100911C50282000911C502891100F
:1000A00071082000FF007E10090080315728FA01F6
:1000B000FB01E301E401E501E601E701E801E901F3
:1000C000EA01EB012100A001A101A201A301A40109
:1000D000A501A601A70120008F31A0278031EC00E7
:1000E0008F31A1278031ED008F31A2278031EE00C2
:1000F0008F31A327EF007E10200080317F28200061
:10010000D901DA010B138B138731332780318F31FB
:10011000AF2780318F31C22780318F31CC2780319A
:100120008731532780318F31D72780318F31E427B2
:1001300080318731A62780318F31A92780310B1775
:100140008B1703302000CC000830CB007830CA0079
:10015000CA0BA828CB0BA828CC0BA8288B132000EF
:10016000E918691C1B2B691DBD286808F300670886
:10017000F2006408F5006308C628E91DD828640861
:10018000F3006308F2006808F5006708F4008631A0
:10019000BC26803172082000CA007308CB00CB3621
:1001A000CA0CCB36CA0C4A08D6004B08D700D80177
:1001B000F030CA004A08E9058731BD27803175084B
:1001C0002000A1007408A0000530A2000030A300A8
:1001D00087317227803120002008EC002108ED00D3
:1001E000EE010130CA00EE37ED0CEC0CCA0BF3281F
:1001F000EC09ED09EE09EC0A0319ED0A0319EE0A00
:1002000073308731F227803121001B08F5001C086C
:10021000F600F70186318A26803185316F258031DD
:1002200020003908DB003A08DC003B08DD008031A3
:10023000022080312000CA00CB01CC014A08CD0049
:100240004B08CE004C08CF004D08A4004E08A50076
:100250004F08A6005B08A7005C08A8005D08A9007D
:100260008631E626803120002408E0002508E100E0
:100270002608E2006430AD000030AE000030AF0070
:100280005708A3005608A2008F31B82780312000FC
:10029000CA000030CA1BFF30CB00CC004A08A400C3
:1002A0004B08A5004C08A6006008A7006108A8003C
:1002B0006208A9008631E626803120002408B000BB
:1002C0002508B1002608B200843152248031200074
:1002D0002D08D0002E08D1002F08D2006430AD00C8
:1002E0000030AE000030AF005708F8005608F700A5
:1002F0008431BD2480312000CA000030CA1BFF3089
:10030000CB00CC004A08A4004B08A5004C08A6006E
:100310006008A7006108A8006208A9008631E626E7
:10032000803120002408B0002508B1002608B20062
:1003300084315224803120002D08D3002E08D400AF
:100340002F08D50043308731F227803121001B0868
:10035000F5001C08F600F70186318A2680316F30DF
:100360008731F227803120006C08F5006D08F60017
:100370006E08F70086318A26803163308731F22794
:10038000803120005B08F5005C08F6005D08F7008E
:1003900086318A26803141308731F2278031200032
:1003A0006008F5006108F6006208F70086318A26C9
:1003B000803172308731F227803120005008F500FB
:1003C0005108F6005208F70086318A2680315230F3
:1003D0008731F227803120005308F5005408F600D9
:1003E0005508F70086318A26803120008C11FF2ABB
:1003F000FF30F500FF30F600FF30F70087310D27A2
:10040000803100302000C600C7008631562680317A
:10041000F301F40100308731D0278031192B5F3090
:10042000F5005E30F600E730F70087310D278031A8
:10043000E8302000BD000330BE005C08BA005B0855
:10044000B9008F31F127803120003A08C000390807
:10045000BF0085311D25803120003E08DF003D08AA
:10046000DE005F08C7005E08C60086315626803170
:100470001F302000CA004A08F300F4010030873121
:10048000D0278031192B7F30F5005530F600EF3042
:10049000F70087310D278031E8302000BD000330A0
:1004A000BE005108BA005008B9008F31F1278031E1
:1004B00020003A08C0003908BF0085311D25803171
:1004C00020003E08DF003D08DE005F08C7005E0830
:1004D000C600863156268031F301F4011F30873182
:1004E000D0278031192B6F30F500DD30F600FA305F
:1004F000F70087310D278031E8302000BD00033040
:10050000BE006108BA006008B9008F31F127803160
:1005100020003A08C0003908BF0085311D25803110
:1005200020003E08DF003D08DE005F08C7005E08CF
:10053000C600863156268031F3011F302000CA00E4
:100540004A08F40000308731D0278031192B6F30F2
:10055000F500DD30F600FA30F70087310D278031E5
:10056000E8302000AD000330AE000030AF0053088B
:10057000B0005408B1005508B200843152248031D3
:1005800020002E08BA002D08B9008F31F1278031E4
:1005900020003A08C7003908C60086315626803147
:1005A000F3011F302000CA004A08F4001F308731D1
:1005B000D0278031192B6F30F500DD30F600FF3089
:1005C000F70087310D27803120004E08BA004D0812
:1005D000B9008F31F127803120003A08C70039086F
:1005E000C6008631562680311F302000CA004A08D6
:1005F000F300F4011F308731D0278031192B200000
:100600005A08003A0319052BF8295908003A03192A
:10061000F829013A03190F2A033A0319DB2A063A8B
:100620000319732A013A0319432A033A0319A72A23
:10063000F82920008C158D1D691A3D2B0130D90732
:100640000030DA3D0730F2000030F3005A08F500C0
:100650005908F40086311126803173082000DA0031
:100660007208D90069166830CB00E430CA00CA0BA2
:10067000372BCB0B372B0000A028EF302000CA000F
:100680004A08E905A028F200F21F502B20000C17A1
:10069000000000000000000020000C130000582B98
:1006A00020000C17000020000C13000000000000C8
:1006B000721F642B20000C170000000000000000D7
:1006C00020000C1300006C2B20000C1700002000F1
:1006D0000C13000000000000F21E782B20000C1705
:1006E000000000000000000020000C130000802B20
:1006F00020000C17000020000C1300000000000078
:10070000721E8C2B20000C1700000000000000005F
:1007100020000C130000942B20000C170000200078
:100720000C13000000000000F21DA02B20000C178D
:10073000000000000000000020000C130000A82BA7
:1007400020000C17000020000C1300000000000027
:10075000721DB42B20000C170000000000000000E8
:1007600020000C130000BC2B20000C170000200000
:100770000C13000000000000F21CC82B20000C1716
:10078000000000000000000020000C130000D02B2F
:1007900020000C17000020000C13000000000000D7
:1007A000721CDC2B20000C17000000000000000071
:1007B00020000C130000080020000C17000020008F
:1007C0000C130000000000000800F300F4010830E2
:1007D0007402031808007308F200740AF02BF23652
:1007E000890BEF2B721CF72B20008C17F92B2000A4
:1007F0008C1300000000000000000000000000005A
:1008000000000000000000000000000000000000E8
:1008100000000000000000000000000000000000D8
:1008200000000000000000000000000000000000C8
:1008300000000000000000000000000000000000B8
:10084000000020000C160000000000000000000066
:100850000000000000000000000000000000000098
:100860000000000000000000000000000000000088
:100870000000000000000000000000000000000078
:100880000000000000000000000000000000000068
:1008900000000000000020000C120130F20072087D
:1008A000F407E72B2000B501AF1F602CAD09AE099E
:1008B000AF09AD0A0319AE0A0319AF0AB501B50AAB
:1008C000B21F6E2CB009B109B209B00A0319B10AFE
:1008D0000319B20A0130B3003308B5060030B60080
:1008E0000030B7000030B8002F082E042D04031983
:1008F000AB2CB401B40AAF1B882C0130AD35AE0D62
:10090000AF0D890B7E2C0130B3003308B4077B2C6C
:100910000130B635B70DB80D890B892C2F0832027E
:10092000031D982C2E083102031D982C2D0830022F
:10093000031CA12C2D08B0022E08B13B2F08B23B9E
:1009400036140130AF36AE0CAD0C890BA22C013041
:10095000B402031D882C35080319B62CB609B70953
:10096000B809B60A0319B70A0319B80A3608AD0060
:100970003708AE003808AF0008007808803AF90060
:1009800081307902031DC62C91307702031CCD2CD7
:100990007030F707FE30F83DBD2C7808803AF9003A
:1009A00081307902031DD62C2D307702031CE72CF1
:1009B00090302000A0000130A1007708A002780844
:1009C000A13B20088F31A427FF3A013E0800780898
:1009D000803AF90080307902031DF02CC93077028B
:1009E000031C012D78082000A1007708A0003830F2
:1009F000A007FF30A13D20088F31A427FF3A013E18
:100A000008007808803AF90080307902031D0A2D29
:100A100065307702031C192DC8302000A00000307B
:100A2000A1007708A0027808A13B20088F31A427F5
:100A3000080077088F31A42708002000C301BE1FDB
:100A4000282DBD09BE09BD0A0319BE0AC301C30A88
:100A5000C01F332DBF09C009BF0A0319C00A0130E6
:100A6000C1004108C306C401C5013D083E04031985
:100A7000622DC201C20ABE1B472D0130BD35BE0D1D
:100A8000890B3E2D0130C1004108C2073B2D0130CA
:100A9000C435C50D890B482D3E084002031D522D5B
:100AA0003D083F02031C592D3D08BF023E08C03BD4
:100AB00044140130BE36BD0C890B5A2D0130C202E0
:100AC000031D472D430803196A2DC409C509C40A2B
:100AD0000319C50A4508BE004408BD0008002100EE
:100AE0009E1707308531C025853100302000AD00CC
:100AF0000430AE000030AF006C08BC006D08BD00D3
:100B00006E08BE006F0821001B072000A000210016
:100B10001C0803181C0A2000A1000530A2000030A8
:100B2000A30087317227853120002008BF002108EB
:100B3000C000C1013F08BC074008BD3D4108BE3DA3
:100B40003C08A4003D08A5003E08A600E830A70028
:100B50000330A8000030A9008631E6268531200048
:100B60002408B0002508B1002608B20084315224C0
:100B700020002D08B9002E08BA002F08BB0008007D
:100B8000F300731CC62D21001D15C82D21001D1159
:100B90007308F20001300310F21B0314F20C890BEE
:100BA000CB2D721CD62D21009D15D82D21009D1115
:100BB0007308F20002300310F21B0314F20C890BCD
:100BC000DB2D721CE62D21001D16E82D21001D12C3
:100BD0007308F20003300310F21B0314F20C890BAC
:100BE000EB2D721CF62D21009D16F82D21009D1273
:100BF0007308F20004300310F21B0314F20C890B8B
:100C0000FB2D721C062E21001D17082E21001D131E
:100C10000D30F200F20B0A2E21009D149D1C0800DD
:100C20000E2EF801F51F1B2EF409F509F40A03191D
:100C3000F50AF801F80AF31F222EF209F309F20A65
:100C40000319F30A720873040319492EF701F70A0E
:100C5000F31B342E0130F235F30D890B2B2E0130AE
:100C6000F6007608F707282E73087502031D3A2E42
:100C700072087402031C402E7208F4027308F53BDC
:100C80000130F336F20C890B412E0130F702031DBF
:100C9000342E78080319512EF409F509F40A0319C2
:100CA000F50A7508F3007408F20008002000C90175
:100CB0004908803A7C3E031808000A30F2000030F0
:100CC000F3004708F5004608F40086311126863106
:100CD0007308850072088400FF3084078730853DE3
:100CE00000088331E52386310A302000BD00003042
:100CF000BE004708C0004608BF0085311D2586316B
:100D000020003E08C7003D08C6000130C800480862
:100D1000C907582E02308731E227863134308731B7
:100D2000E227863175082000A0007608A100770828
:100D3000A2001030A300220DA20CA10CA00CA30B4A
:100D40009B2E20088731E227863175082000A000FD
:100D50007608A1007708A2000830A300220DA20C9B
:100D6000A10CA00CA30BAE2E20088731E227863100
:100D700075088731E227080075087302031DC22E2B
:100D8000740872020318D22E7209F6007309F70074
:100D9000F60A0319F70A74087607F2007508773D1A
:100DA000F30008007209F6007309F700F60A031948
:100DB000F70A74087607F8007508773DF900780897
:100DC000FF3EF200FF30793DF300080000302000C4
:100DD000AA000030AB000030AC00241CF52E270820
:100DE000AA072808AB3D2908AC3D0130A735A80D5E
:100DF000A90D890BF62E0130A636A50CA40C890B83
:100E0000FC2E260825042404031DED2E2A08A40028
:100E10002B08A5002C08A600080075082000A000DB
:100E20007608A1007708A2001030A236A10CA00C11
:100E3000890B152F20088331E523873175082000A1
:100E4000A0007608A1007708A2000830A236A10C05
:100E5000A00C890B262F20088331E52387317508E4
:100E60008331E523080020008C01073023008C002B
:100E7000073021008C0020008D01303023008D00D0
:100E80003A3021008D009513083024008D00210098
:100E900019109910991119169916191799172700F1
:100EA00095168B15080022001D1421000D14FF302B
:100EB00020009B003030250093000C30F2007208B7
:100EC00093047F309100131693161E149E10200079
:100ED0009310280017109710171520009310210069
:100EE0000D100800F801F9012000201C7B2F2208BA
:100EF000F8072308F93D0130A235A30D890B7C2F9B
:100F00000130A136A00C890B812F20082104031D7C
:100F1000742F7908A1007808A0000800F50064008B
:100F2000230095188F2F7508F200F30172089100C5
:100F3000730892003F30F4007408950515140310EF
:100F4000151803140030093D1308080022009D13F2
:100F50001E1023009E161E129D171D161E129D1791
:100F60001E119F1133309B002000911EBA2F2300C9
:100F70001908B42F21009116080021009E171F3078
:100F80008531C02521001C08F7001B08F600F63546
:100F9000F70DF635F70D7608F4007708F500080030
:100FA000F500750883314323873173088331432368
:100FB000873174088331432320001708E6001608A0
:100FC000E5000800F400740823009A009E1CE62F38
:100FD0000B30F3006230F200F20BEC2FF30BEC2F2E
:100FE00000000800F50002308731E22787313630F3
:100FF0008731E227873175088731E227080081347D
:10100000BD34133419342D34493441349D34013402
:021010000934A1
:101F40002C34CF34FF340734F600760887318E27DF
:101F50000800FA01FA03FB012000EB01080022004F
:101F600017149710171197119717171B0800B52F03
:101F700020002208643EF7000030233DF800843141
:101F8000BD24080021009E131E129E161E171E104F
:101F90009E101E111D140800200018139813181607
:101FA00098122100111420001110181408002200AA
:101FB00012149210121292169217210092162000FB
:101FC000921222009117080022001410941014128B
:101FD0009412941721001217200012132200931755
:101FE00008002000BA1F08003909BB003A09BC00EC
:101FF000BB0A0319BC0A3B08B9003C08BA00080038
:020000040001F9
:04000E00E4C9FFDD65
:10E0000000000200030005000600080009000B00E4
:10E010000D000E0010001100130014001600170070
:10E0200019001A001C001D001F0020002200230000
:10E0300025002600280029002B002C002D002F0091
:10E0400030003200330034003600370038003A0028
:10E050003B003C003D003F004000410042004300C7
:10E06000440046004700480049004A004B004C006D
:10E070004D004E004F00500051005200530054001C
:10E0800054005500560057005800580059005A00D7
:10E090005A005B005C005C005D005E005E005F009B
:10E0A0005F0060006000600061006100620062006B
:10E0B0006200630063006300630063006400640047
:10E0C000640064006400640064000000000000005C
:00000001FF
