:1000000080315528E63008007E14803120007F08BA
:10001000F1002100911E22282000911E2228230099
:100020001908F0007A08593E86008701700881009F
:100030000130F0007008FA070730F0007008FA0588
:10004000200091122100111C29282000111C2928B0
:1000500011102100921E39282000921E392867189D
:1000600038281708E6001608E500E718E7156714B2
:1000700092122100121F49282000121F4928E71858
:1000800048281708E2001608E10067186715E7140A
:1000900012132100911C50282000911C502891100F
:1000A00071082000FF007E10090080315728FA01F6
:1000B000FB01593084000030850011308F31D22788
:1000C00080318F31C3278031EA008F31C4278031DE
:1000D000EB008F31C5278031EC008F31C627ED0052
:1000E0007E102000803174282000D101D2010B1332
:1000F0008B1387310E2780318F31D82780318F3194
:10010000EB2780318F31F527803187312E278031E1
:100110008731E72780318731DA278031873181279E
:1001200080318F31CC2780310B1707308731F4278E
:1001300080318B1703302000C4000830C3007830B2
:10014000C200C20BA128C30BA128C40BA1288B138A
:100150002000E718671CF62A671DB6286608F3001A
:100160006508F2006208F5006108BF28E71DD12884
:100170006208F3006108F2006608F5006508F40003
:1001800086319726803172082000C2007308C300B0
:10019000C336C20CC336C20C4208CE004308CF009F
:1001A000D001F030C2004208E7058731982780313E
:1001B00075082000A1007408A0000530A2000030DE
:1001C000A30087314D27803120002008EA00210854
:1001D000EB00EC010130C200EC37EB0CEA0CC20B77
:1001E000EC28EA09EB09EC09EA0A0319EB0A0319FE
:1001F000EC0A73308731CD27803121001B08F500D0
:100200001C08F600F70186316526803185314A25C4
:10021000803120003908D6003A08D7003B08D800C2
:10022000D430D607FE300318FF30D707FF30031C49
:10023000D807D81F2329D609D709D809D60A031900
:10024000D70A0319D80A8031022080312000C20069
:10025000C301C4014208C5004308C6004408C700E2
:100260004508A4004608A5004708A6005608A700B0
:100270005708A8005808A9008631C12680312000FF
:100280002408D3002508D4002608D5006430AD002A
:100290000030AE000030AF004F08A3004E08A200AF
:1002A0008F31E12780312000C2000030C21BFF30B7
:1002B000C300C4004208A4004308A5004408A600E7
:1002C0005308A7005408A8005508A9008631C12684
:1002D000803120002408B0002508B1002608B200B3
:1002E00084312D24803120002D08C8002E08C9003B
:1002F0002F08CA006430AD000030AE000030AF00FF
:100300004F08F8004E08F70084319824803120000F
:10031000C2000030C21BFF30C300C4004208A4006A
:100320004308A5004408A6005308A7005408A800E5
:100330005508A9008631C126803120002408B0006C
:100340002508B1002608B20084312D248031200018
:100350002D08CB002E08CC002F08CD00433087316C
:10036000CD27803121001B08F5001C08F600F7019D
:100370008631652680316F308731CD27803120006E
:100380006A08F5006B08F6006C08F70086316526F0
:10039000803163308731CD27803120005608F50049
:1003A0005708F6005808F70086316526803141303D
:1003B0008731CD27803120005308F5005408F6001E
:1003C0005508F70086316526803172308731CD2798
:1003D000803120004808F5004908F6004A08F70077
:1003E00086316526803152308731CD27803120001B
:1003F0004B08F5004C08F6004D08F70086316526DD
:10040000803120008C11DA2AFF30F500FF30F60031
:10041000FF30F7008631E826803100302000B90037
:10042000BA00863131268031FF302000C2004208F8
:10043000F300FF30C3004308F400FF308731AB27DF
:100440008031F42ADF30F5005A30F600FA30F70038
:100450008631E826803120005708BA005608B900D6
:10046000863131268031FF302000C2004208F3007F
:10047000F40100308731AB278031F42A7F30F5005A
:100480005530F600EF30F7008631E8268031E8304D
:100490002000AD000330AE000030AF004808B000CF
:1004A0004908B1004A08B20084312D24803120006F
:1004B0002E08BA002D08B900863131268031F301AB
:1004C000F401FF308731AB278031F42A6F30F5001B
:1004D000DD30F600FA30F7008631E8268031E8306A
:1004E0002000AD000330AE000030AF005308B00074
:1004F0005408B1005508B20084312D248031200009
:100500002E08BA002D08B900863131268031F3015A
:10051000FF302000C2004208F40000308731AB27D2
:100520008031F42A6F30F500DD30F600FA30F70044
:100530008631E8268031E8302000AD000330AE007F
:100540000030AF004B08B0004C08B1004D08B200BD
:1005500084312D24803120002E08BA002D08B900E6
:10056000863131268031F301FF302000C20042087D
:10057000F400FF308731AB278031F42A6F30F5006B
:10058000DD30F600FF30F7008631E82680312000AC
:100590004608BA004508B900863131268031FF305F
:1005A0002000C2004208F300F401FF308731AB277E
:1005B0008031F42A20005208003A0319E02A042A64
:1005C0005108003A0319042A013A0319222A033A6E
:1005D0000319BE2A063A0319662A013A03193E2A6C
:1005E000033A0319922A042A20008C158D1D671ADC
:1005F000182B0130D1070030D23D0730F200003017
:10060000F3005208F5005108F4008531EC258031E3
:1006100073082000D2007208D10067166830C3004A
:10062000E430C200C20B122BC30B122B000099281E
:10063000EF302000C2004208E7059928F200F21FBF
:100640002B2B20000C1700000000000000002000F1
:100650000C130000332B20000C17000020000C139B
:10066000000000000000721F3F2B20000C1700004C
:1006700000000000000020000C130000472B2000A9
:100680000C17000020000C13000000000000F21EF8
:10069000532B20000C170000000000000000200079
:1006A0000C1300005B2B20000C17000020000C1323
:1006B000000000000000721E672B20000C170000D5
:1006C00000000000000020000C1300006F2B200031
:1006D0000C17000020000C13000000000000F21DA9
:1006E0007B2B20000C170000000000000000200001
:1006F0000C130000832B20000C17000020000C13AB
:10070000000000000000721D8F2B20000C1700005D
:1007100000000000000020000C130000972B2000B8
:100720000C17000020000C13000000000000F21C59
:10073000A32B20000C170000000000000000200088
:100740000C130000AB2B20000C17000020000C1332
:10075000000000000000721CB72B20000C170000E6
:1007600000000000000020000C1300000800200022
:100770000C17000020000C1300000000000008000F
:10078000F300F40108307402031808007308F20043
:10079000740ACB2BF236890BCA2B721CD22B200089
:1007A0008C17D42B20008C130000000000000000E8
:1007B0000000000000000000000000000000000039
:1007C0000000000000000000000000000000000029
:1007D0000000000000000000000000000000000019
:1007E0000000000000000000000000000000000009
:1007F000000000000000000020000C1600000000B7
:1008000000000000000000000000000000000000E8
:1008100000000000000000000000000000000000D8
:1008200000000000000000000000000000000000C8
:1008300000000000000000000000000000000000B8
:1008400000000000000000000000000020000C126A
:100850000130F2007208F407C22B2000B501AF1F6F
:100860003B2CAD09AE09AF09AD0A0319AE0A031955
:10087000AF0AB501B50AB21F492CB009B109B209D6
:10088000B00A0319B10A0319B20A0130B3003308E0
:10089000B5060030B6000030B7000030B8002F08B1
:1008A0002E042D040319862CB401B40AAF1B632C4B
:1008B0000130AD35AE0DAF0D890B592C0130B300B1
:1008C0003308B407562C0130B635B70DB80D890B77
:1008D000642C2F083202031D732C2E083102031DD5
:1008E000732C2D083002031C7C2C2D08B0022E081E
:1008F000B13B2F08B23B36140130AF36AE0CAD0C15
:10090000890B7D2C0130B402031D632C35080319BB
:10091000912CB609B709B809B60A0319B70A031921
:10092000B80A3608AD003708AE003808AF00080036
:100930007808803AF90081307902031DA12C9130AA
:100940007702031CA82C7030F707FE30F83D982C76
:100950007808803AF90081307902031DB12C2D30DE
:100960007702031CC22C90302000A0000130A100AF
:100970007708A0027808A13B20088F31C727FF3AEB
:10098000013E08007808803AF90080307902031DA2
:10099000CB2CC9307702031CDC2C78082000A10086
:1009A0007708A0003830A007FF30A13D20088F3124
:1009B000C727FF3A013E08007808803AF9008030E6
:1009C0007902031DE52C65307702031CF42CC83036
:1009D0002000A0000030A1007708A0027808A13B09
:1009E00020088F31C727080077088F31C7270800F4
:1009F0002000A101F31F032DF209F309F20A0319E4
:100A0000F30AA101A10AF51F0E2DF409F509F40A54
:100A10000319F50A0130F6007608A106A201A30128
:100A20007208730403193D2DA001A00AF31B222DA7
:100A30000130F235F30D890B192D0130F6007608DF
:100A4000A007162D0130A235A30D890B232D7308A5
:100A50007502031D2D2D72087402031C342D7208BB
:100A6000F4027308F53B22140130F336F20C890BC3
:100A7000352D0130A002031D222D21080319452D1B
:100A8000A209A309A20A0319A30A2308F300220852
:100A9000F200080021009E17073085319B25853123
:100AA00000302000AD000430AE000030AF006A0816
:100AB000BC006B08BD006C08BE006D0821001B0760
:100AC0002000A00021001C0803181C0A2000A1001F
:100AD0000530A2000030A30087314D27853120006A
:100AE0002008BF002108C000C1013F08BC07400822
:100AF000BD3D4108BE3D3C08A4003D08A5003E08A0
:100B0000A600E830A7000330A8000030A900863115
:100B1000C126853120002408B0002508B100260830
:100B2000B20084312D2420002D08B9002E08BA000F
:100B30002F08BB000800F300731CA12D21001D1518
:100B4000A32D21001D117308F20001300310F21BC8
:100B50000314F20C890BA62D721CB12D21009D15DA
:100B6000B32D21009D117308F20002300310F21B17
:100B70000314F20C890BB62D721CC12D21001D1619
:100B8000C32D21001D127308F20003300310F21B65
:100B90000314F20C890BC62D721CD12D21009D1659
:100BA000D32D21009D127308F20004300310F21BB4
:100BB0000314F20C890BD62D721CE12D21001D1798
:100BC000E32D21001D130D30F200F20BE52D210065
:100BD0009D149D1C0800E92DF801F51FF62DF40960
:100BE000F509F40A0319F50AF801F80AF31FFD2DB7
:100BF000F209F309F20A0319F30A720873040319DC
:100C0000242EF701F70AF31B0F2E0130F235F30DF6
:100C1000890B062E0130F6007608F707032E7308BD
:100C20007502031D152E72087402031C1B2E720818
:100C3000F4027308F53B0130F336F20C890B1C2EDD
:100C40000130F702031D0F2E780803192C2EF4092A
:100C5000F509F40A0319F50A7508F3007408F2009F
:100C600008002000BC013C08803A7C3E03180800C4
:100C70000A30F2000030F3003A08F5003908F400B9
:100C80008531EC25863173088500720884000030B8
:100C900084078830853D00088331C02386310A30BF
:100CA000F2000030F30020003A08F5003908F400A3
:100CB0008431F824863173082000BA007208B90024
:100CC0000130BB003B08BC07332E02308731BD2703
:100CD000863134308731BD27863175082000A00069
:100CE0007608A1007708A2001030A300220DA20C04
:100CF000A10CA00CA30B762E20088731BD278631CE
:100D000075082000A0007608A1007708A20008302E
:100D1000A300220DA20CA10CA00CA30B892E20086D
:100D20008731BD27863175088731BD2708007508D2
:100D30007302031D9D2E740872020318AD2E7209F2
:100D4000F6007309F700F60A0319F70A7408760724
:100D5000F2007508773DF30008007209F600730988
:100D6000F700F60A0319F70A74087607F800750801
:100D7000773DF9007808FF3EF200FF30793DF3003F
:100D8000080000302000AA000030AB000030AC00AA
:100D9000241CD02E2708AA072808AB3D2908AC3D03
:100DA0000130A735A80DA90D890BD12E0130A6362B
:100DB000A50CA40C890BD72E260825042404031D9A
:100DC000C82E2A08A4002B08A5002C08A60008009D
:100DD00075082000A0007608A1007708A200103056
:100DE000A236A10CA00C890BF02E20088331C02361
:100DF000863175082000A0007608A1007708A200BF
:100E00000830A236A10CA00C890B012F20088331D9
:100E1000C023863175088331C023080020008C016F
:100E2000073023008C00073021008C0020008D014A
:100E3000303023008D003A3021008D0095130830AA
:100E400024008D0021001910991099111916991676
:100E500019179917270095168B15080022001D14E5
:100E600021000D14FF3020009B003030250093003E
:100E70000C30F200720893047F3091001316931621
:100E80001E149E102000931028001710971017159D
:100E90002000931021000D100800F801F901200036
:100EA000201C562F2208F8072308F93D0130A235EF
:100EB000A30D890B572F0130A136A00C890B5C2F95
:100EC00020082104031D4F2F7908A1007808A000F5
:100ED0000800F5006400230095186A2F7508F200D9
:100EE000F30172089100730892003F30F400740817
:100EF000950515140310151803140030093D130847
:100F0000080022009D131E1023009E161E129D171E
:100F10001D161E129D171E119F1133309B002000BD
:100F2000911E952F230019088F2F2100911608007C
:100F300021009E171F3085319B2521001C08F700DA
:100F40001B08F600F635F70DF635F70D7608F400B8
:100F50007708F5000800F500750883311E238731F6
:100F6000730883311E238731740883311E232000C8
:100F70001708E4001608E3000800F40074082300D2
:100F80009A009E1CC12F0B30F3006230F200F20B6E
:100F9000C72FF30BC72F00000800F5000230873180
:100FA000BD27873136308731BD27873175088731B6
:100FB000BD270800220014109410141294129417E4
:100FC000210012172000121322009317080022009C
:100FD00012149210121292169217210092162000EB
:100FE0009212220091170800F600F61B0800FF304D
:100FF0008331C0238731FF30F5007508F607F52FE0
:101000008134BD34133419342D34493441349D3482
:04101000013409346A
:101F86002C34CF34FF340734F600760887316927BE
:101F96000800FA01FA03FB012000E90108006400C9
:101FA60080010131890BD32F0034220017149710BA
:101FB600171197119717171B0800DE2F200022080C
:101FC600643EF7000030233DF80084319824080071
:101FD60021009E131E129E161E171E109E101E1105
:101FE6001D140800200018139813181698122100C3
:0A1FF6001114200011101814080047
:020000040001F9
:04000E00E4C9FFDD65
:10E0000000000200030005000600080009000B00E4
:10E010000D000E0010001100130014001600170070
:10E0200019001A001C001D001F0020002200230000
:10E0300025002600280029002B002C002D002F0091
:10E0400030003200330034003600370038003A0028
:10E050003B003C003D003F004000410042004300C7
:10E06000440046004700480049004A004B004C006D
:10E070004D004E004F00500051005200530054001C
:10E0800054005500560057005800580059005A00D7
:10E090005A005B005C005C005D005E005E005F009B
:10E0A0005F0060006000600061006100620062006B
:10E0B0006200630063006300630063006400640047
:10E0C000640064006400640064000000000000005C
:00000001FF
