:0400000080316528BE
:100008007E14803120007F08F1002100911E2228F3
:100018002000911E222823001908F0007A08A03E2B
:1000280086008701700881000130F0007008FA0727
:100038001F30F0007008FA05200091122100111CF1
:1000480029282000111C292811102100921E41285E
:100058002000921E412817082100E80020001608F9
:100068002100E700C418C415441D3E28FB30F000E9
:100078007008C4054414200092122100121F592848
:100088002000121F592817082100E6002000160832
:100098002100E50044184415C41D5628F730F00027
:1000A8007008C405C414200012132100911C602894
:1000B8002000911C6028911071082000FF007E101C
:1000C800090080316728FA01FB01ED01A0308400A6
:1000D8000030850025308B317823803185308400CD
:1000E8008B308500E23086000030870007308B3186
:1000F80072237E102000803181280B138B138C31E2
:10010800142480318B31952380318B319E238031AB
:100118008B31A82380318C314F2480318B31B3232C
:1001280080318B31C02380318B31E22380318B3198
:100138006C2380310B178B178D31552580312000AA
:100148004408C7004508C8004608C9008B318C23FD
:100158008031200047082100D500200048082100F0
:10016800D600200049082100D70000302000B40044
:100178000030B5004030B6000030A400A030A50023
:100188004030A600210055082000A700210056088D
:100198002000A800210057082000A90084319D24D0
:1001A800803120002408B7002508B8002608B900C7
:1001B800853151258031200034082100E2002000DB
:1001C80035082100E300200036082100E400210062
:1001D800C418441C0E2A441DF9286808F30067084F
:1001E800F2006608F50065080229C41D0D29660895
:1001F800F3006508F2006808F5006708F4008D311F
:100208001F25803172082100DE007308DF00E0013D
:10021800E101C4010030F5000030F4000030F300C3
:100228007D30F2006108F9006008F8005F08F70007
:100238005E08F6008C31B824803175082100E10091
:100248007408E0007308DF007208DE000030F50073
:100258000030F4000330F300E830F2006108F900E0
:100268006008F8005F08F7005E08F6008E31E9269E
:10027800803175082100E1007408E0007308DF0090
:100288007208DE001D30F3008830F4008C316E24D3
:10029800803121006108F6006008F5005F08F4006D
:1002A8005E08F3008E314926803121006108200064
:1002B800A300210060082000A20021005F082000A0
:1002C800A10021005E082000A0008C318E2480311E
:1002D800200020082100DB00200021082100DC008C
:1002E800200022082100DD0000302000B4007A3010
:1002F800B5004430B60021005B082000B70021009B
:100308005C082000B80021005D082000B900853194
:1003180051258031200034082100DB0020003508F9
:100328002100DC00200036082100DD00003020001C
:10033800B4007A30B5004430B60021005B082000D4
:10034800B70021005C082000B80021005D082000EB
:10035800B900853151258031200034082100DB00A7
:10036800200035082100DC00200036082100DD00CF
:1003780014302000A4009D30A5004330A6002100C1
:100388005B082000A70021005C082000A8002100CD
:100398005D082000A90084319D24803120002408B4
:1003A8002100D800200025082100D90020002608B7
:1003B8002100DA0058082000EA002100590820002E
:1003C800EB0021005A082000EC0087310627803115
:1003D80020006A082100D20020006B082100D30009
:1003E80020006C082100D4001330F3008830F4009A
:1003F8008C316E248031210052082000DD0021005C
:1004080053082000DE00210054082000DF008E3150
:10041800082680310430F3008830F4008C316E24D3
:10042800803187317A27803120005708DD0058084D
:10043800DE005908DF008E3108268031EB282100C4
:10044800CE0120006608F2006708F3006808F4008F
:100458000030F5000030F6000030F7008D31CB2574
:10046800823103184B2A20006608C7006708C800B5
:100478006808C9008B318C23823120004708E600C8
:100488004808E7004908E8002100CE01CE0AFA3002
:100498002000A4002230A5003E30A6006608A70070
:1004A8006708A8006808A90084319D2482312000CB
:1004B8002408E6002508E7002608E8006608D700B3
:1004C8006708D8006808D900863181268231200063
:1004D8005708E0005808E1005908E2006608E30000
:1004E8006708E4006808E5008C3131248231200077
:1004F8006008E6006108E7006208E8000030A40030
:100508008030A5004030A6006608A7006708A8004C
:100518006808A90084319D24823120002408E6005F
:100528002508E7002608E8000030F2000030F30054
:100538004030F4006608F5006708F6006808F70020
:100548008D31CB2582310318CC2A00302000E00001
:100558000030E1004030E2006608E3006708E4008C
:100568006808E5008C313124823120006008E600FB
:100578006108E7006208E80021004E08031DC62A4A
:100588000130C72A00302000E90069082100CE00A8
:100598000030F2008030F3003F30F400200066089D
:1005A800F5006708F6006808F7008D31CB25823121
:1005B8000318FF2A00302000CA000030CB0040306A
:1005C800CC006608C7006708C8006808C9008B31F6
:1005D8008C23823120004708CD004808CE00490806
:1005E800CF008331A723823120004A08E6004B0858
:1005F800E7004C08E80020006608A4006708A5008A
:100608006808A6006608A7006708A8006808A90087
:1006180084319D248231200024082100CB00200051
:1006280025082100CC00200026082100CD004B0819
:100638002000D70021004C082000D80021004D08D8
:100648002000D900F830DA008730DB000330DC0006
:100658000030DD008F313C2782312000570821000F
:10066800C500200058082100C600200059082100B4
:10067800C70004302000DC000030DD00E930DA007B
:100688008730DB0021004B082000D70021004C08F0
:100698002000D80021004D082000D9008F313C27C8
:1006A800823120005708B7005808B8005908B90027
:1006B800210045082000B400210046082000B500AC
:1006C800210047082000B6008531512582312000DD
:1006D80034082100C800200035082100C900200086
:1006E80036082100CA0048082000A4002100490853
:1006F8002000A50021004A082000A6006608A700DF
:100708006708A8006808A90084319D248231200068
:100718002408E6002508E7002608E80021004E081E
:100728000319080020006608C7006708C8006808A1
:10073800C9008B318C2320004708E6004808E700F1
:100748004908E800080020004A08D0004B08D100FA
:100758004C08D2000310510D520DD3005308D60097
:100768004D08D0004E08D1004F08D2000310510D9B
:10077800520DD3005308D50056080319CF2B55083E
:1007880056020318D62B5603FF3A5507D0001930E6
:100798005002031CD62B4D08CA004E08CB004F0848
:1007A800CC0008005508031908005608550203181C
:1007B800E52B5503FF3A5607D000193050020318AD
:1007C80008000630D0005008D400CC1BD417CF1B2B
:1007D8005417CB17FF30CA05FF30CB050030CC05C6
:1007E800CE17FF30CD05FF30CE050030CF055508B8
:1007F80056020318212C0130CD35CE0DCF0D890BB3
:10080800002C0130D5025508560603191C2C01305E
:10081800D4025408073903191C2CFF2B0130CC369D
:10082800CB0CCA0C890B132C0130D0005008D6070A
:10083800560855060319462C122C5608550203185B
:10084800462C0130CA35CB0DCC0D890B262C013036
:10085800D602550856060319422C0130D402540812
:1008680007390319422C252C0130CF36CE0CCD0C7C
:10087800890B392C0130D0005008D5075608550689
:10088800031D382CD41F582CFF30CA06FF30CB0666
:10089800FF30CC060130CA07003003180130CB07FF
:1008A800003003180130CC07541F6A2CFF30CD06E6
:1008B800FF30CE06FF30CF060130CD0700300318D9
:1008C8000130CE07003003180130CF07D4014A08A1
:1008D800CD074B08CE3D4C08CF3DCF1F852CFF30B0
:1008E800CD06FF30CE06FF30CF060130CD070030F1
:1008F80003180130CE07003003180130CF07D401A8
:10090800D40A4D08F2004E08F3004F08F4005608C8
:10091800D0005008F5005408D1005108F6008F3176
:100928009C2772082000CA007308CB007408CC000A
:10093800080020002408AA002508AB002608AC00FF
:1009480003102B0D2C0DAD002D08AE002E08031D35
:10095800B42C0030A4000030A5000030A600080028
:100968002708AA002808AB002908AC0003102B0DA3
:100978002C0DAD002D08B3003308031DCA2C003020
:10098800A4000030A5000030A600080033087B3E14
:10099800AA002A08AE072408AA002508AB002608E2
:1009A800AC001030AC36AB0CAA0C890BD62C2A083C
:1009B800AD002D08B3002708AA002808AB002908B5
:1009C800AC001030AC36AB0CAA0C890BE62C2A080C
:1009D800AD002D08B3068030AA002A08B305A51774
:1009E800A817FF30A705FF30A8050030A90500307B
:1009F800AF000030B0000030B1000730AA002A086C
:100A0800B200241C0D2D2708AF072808B03D29087F
:100A1800B13D0130A636A50CA40C890B0E2D013072
:100A2800A735A80DA90D890B142D0130B202031D9D
:100A3800052D0930AA002A08B200241C292D2708F0
:100A4800AF072808B03D2908B13D0130A636A50CEE
:100A5800A40C890B2A2D0130B136B00CAF0C890BD0
:100A6800302D0130B202031D212D2F08F20030086D
:100A7800F3003108F4002E08AA002A08F50033080C
:100A8800AB002B08F6008F319C2772082000A400C9
:100A98007308A5007408A600080020003708BA00EB
:100AA8003808BB003908BC0003103B0D3C0DBD00E5
:100AB8003D08C2004208031D682D0030B400003014
:100AC800B5000030B60008003408BA003508BB008D
:100AD8003608BC0003103B0D3C0DBD003D08C300AB
:100AE8004308031D7E2D0030B4000030B5000030EF
:100AF800B60008000030BF000030C0000030C10060
:100B080089304307BA003A08C2023708BA003808E1
:100B1800BB003908BC001030BC36BB0CBA0C890BC2
:100B2800902D3A08BD003D08C3003408BA003508C6
:100B3800BB003608BC001030BC36BB0CBA0C890BA5
:100B4800A02D3A08BD003D08C3068030BA003A0817
:100B5800C305B817FF30B705FF30B8050030B90531
:100B6800B517FF30B405FF30B5050030B6051830AD
:100B7800BA003A08BE000130BF35C00DC10D890B5F
:100B8800C02D36083902031DCF2D35083802031D44
:100B9800CF2D34083702031CD82D3408B702350886
:100BA800B83B3608B93B3F140130B735B80DB90D1D
:100BB800890BD92D0130BE02031DBF2D3F08F2005D
:100BC8004008F3004108F4004208BA003A08F5006A
:100BD8004308BB003B08F6008F319C2772082000B1
:100BE800B4007308B5007408B60008007208F6006F
:100BF8007308F7007408F8000310770D780DF900F2
:100C080079082000A5002508031D132E0030F500E3
:100C18000030F4000030F3000030F20008007208E1
:100C2800F6007308F7007408F8001730F836F70C68
:100C3800F60C890B1A2E7608F9007908A000F3172C
:100C4800FF30F205FF30F3050030F4057208A1000B
:100C58007308A2007408A300A4018E30A502A51F82
:100C6800512E2508803A8F3E0318432E0030F50098
:100C78000030F4000030F3000030F20008000130CA
:100C8800A436A30CA20CA10C890B442E0130F6004B
:100C98007608A50703196A2E432E18302502031C6F
:100CA800672E0030F5000030F4000030F30000300B
:100CB800F20008000130A135A20DA30DA40D890B87
:100CC8005F2E0130A5022508031D5E2E200803199A
:100CD800782EA109A209A309A409A10A0319A20A45
:100CE8000319A30A0319A40A2408F5002308F40029
:100CF8002208F3002108F200080020005708F2003B
:100D08005808F3005908F4005E30DA005A08F50074
:100D18008C31EA2486312000DF1FB32E5708F200F9
:100D28005808F3005908F4000030F5000030F600C8
:100D38000030F7008D31CB2586310318AB2E0030FB
:100D48002000D7008030D800BF30D900080000301C
:100D58002000D7000030D8000030D900080000304B
:100D68005F02153003195E02031808005708F200E5
:100D78005808F3005908F4008531FA2586317508BA
:100D88002000A9007408A8007308A7007208A6002C
:100D98008D318E25863120002608DB002708DC00EF
:100DA8002808DD005708F2005808F3005908F40035
:100DB8005B08F5005C08F6005D08F7008D31CB256F
:100DC80086310318FE2E00302000CA008030CB0088
:100DD800BF30CC005B08CD005C08CE005D08CF00BA
:100DE8008331A72320004A08D7004B08D8004C08B5
:100DF800D900080020005B08D7005C08D8005D080F
:100E0800D90008001030F2004930F3004030F400F7
:100E180020006A08F5006B08F6006C08F7008D31B1
:100E2800CB2587310318492FCC302000CA009630D3
:100E3800CB00C030CC006A08CD006B08CE006C082F
:100E4800CF008331A723873120004A082100CF0033
:100E580020004B082100D00020004C082100D100C0
:100E68004F082000E600210050082000E70021007C
:100E780051082000E8008231232220006608EA0099
:100E88006708EB006808EC00080010302000CA0072
:100E9800C930CB003F30CC006A08CD006B08CE00CB
:100EA8006C08CF008331A723873120004A0821002E
:100EB800CF0020004B082100D00020004C08210062
:100EC800D1004F082000E600210050082000E7006C
:100ED800210051082000E800823123222000660802
:100EE800EA006708EB006808EC00080021009E177C
:100EF80007308E319826873100302000B4008030CA
:100F0800B5004430B6000030A400A030A500403041
:100F1800A60021001C082000A10021001B082000B9
:100F2800A0008B31CD23873120002008A70021089D
:100F3800A8002208A90084319D24873120002408B4
:100F4800B7002508B8002608B90085315125873132
:100F580020003408DA003508DB003608DC00210000
:100F680062082000CA00210063082000CB0021008D
:100F780064082000CC000030A400A030A500403058
:100F8800A6005A08A7005B08A8005C08A9008431DD
:100F98009D24873120002408CD002508CE0026088E
:100FA800CF008331A72320004A08D7004B08D80078
:100FB8004C08D90008008134BD34C8349834B4349E
:100FC80092348234B93480349034F4344A34483416
:100FD80095349534C734C134DC344534DC346D344D
:100FE800C334B334333440343434013448349D3456
:100FF800B03445340034DA344234003480343F3479
:10100800633475347234723465346E3474342F3406
:1010180061346D347034653472346534003461344D
:101028006E3467346C3465342F347234613464340C
:10103800003464346934663466342F347534733458
:02104800003472
:1016D800FA01FA03FB012000ED010800FE001200E8
:1016E8001E00FE0B732B0034640080010131890B4E
:1016F800792B0034F200720823009A009E18080023
:10170800822B00344834C134FF34FF34FF34FF34B3
:101718002000490848044704031908008030C90616
:101728000800220017149710171197119717171B05
:1017380008009B2B21009E131E129E161E171E10BA
:101748009E101E111D140800200018139813181657
:1017580098122100111420001110181408002200FA
:10176800121492101212921692172100921620004B
:1017780092122200911708002200141094101412DB
:1017880094129417210012172000121322009317A5
:10179800080020002008F2002108F300F4018E3030
:1017A800A3002308F500F6018F319C27720820005A
:1017B800A0007308A1007408A200080022009D136D
:1017C8001E1023009E161E129D171D161E129D1711
:1017D8001E119F1133309B002000911EF62B230011
:1017E8001908F02B210091160800F601F701721C68
:1017F800012C7408F6077508F73D0130F435F50D2E
:10180800890B022C0130F336F20C890B072C720875
:101818007304031DFB2B7708F3007608F200080019
:1018280020008C01073023008C00073021008C0039
:1018380020008D01303023008D003A3021008D00CA
:101848009513083024008D00210019109910991162
:1018580019169916191799170800200062086104CB
:1018680060040319392C8030E2066308CA00640852
:10187800CB006508CC006008CD006108CE00620886
:10188800CF008331A72320004A08E0004B08E1007D
:101898004C08E200080022001D1421000D14FF303E
:1018A80020009B003030250093000C30F2007208B5
:1018B80093047F309100131693161E149E10200077
:1018C8009310280017109710171520009310210067
:1018D8000D10080002308B317E238C3131308B3172
:1018E8007E238C3173088400740885001200031964
:1018F8008A2C730884007408850000088B317E23C5
:101908008C310130F3070030F43D762C03308B31F5
:101918007E2308008E302000A4002408A500FF3094
:1019280023050319A32C0130A336A20CA10CA00C8B
:10193800890B982C0130A4002408A507932C2008B3
:10194800F2002108F3002208F4002508A400240866
:10195800F500F6018F319C2772082000A00073085B
:10196800A1007408A200080000302000A300003085
:10197800A2000030A1000030A000721CCC2C760818
:101988002000A0077708A13D7808A23D7908A33D6B
:101998000130F635F70DF80DF90D890BCD2C013016
:1019A800F536F40CF30CF20C890BD42C750874047E
:1019B80073047204031DC12C20002308F5002208BB
:1019C800F4002108F3002008F200080074087304EA
:1019D8007204031DF62C7508860087010030C03F8D
:1019E800C13F080074087F39F600F701F635F70D96
:1019F8007508860087017608C03F7708C13F730DD8
:101A0800730D0139F600F70175088600870176081D
:101A18008104413177088104750886008701823086
:101A280081074131FF30813D7F31740880393F386B
:101A3800F400F31308008B132100E701E801E50126
:101A4800E6018B1775087302031D2C2D74087202AA
:101A580003183C2D7209F6007309F700F60A0319FA
:101A6800F70A740876072000A0007508773D4F2D07
:101A78007209F6007309F700F60A0319F70A7408E1
:101A88007607F8007508773DF9007808FF3E2000D2
:101A9800A000FF30793DA1002108F3002008F200E2
:101AA800080021009E171F308E3198268D31123084
:101AB8002000A4008330A5003F30A60021001C08A8
:101AC8002000A10021001B082000A0008B31CD239D
:101AD8008D3120002008B4002108B5002208B60086
:101AE8000030B7008030B8004430B9008531512546
:101AF8008D3120003408A7003508A8003608A90051
:101B080084319D2420002408C4002508C500260827
:101B1800C60008002000AD018E30AA002A08AC00DB
:101B2800A91FA32DA609A709A809A909A60A031987
:101B3800A70A0319A80A0319A90AAD01AD0AFF30BB
:101B480029050319B32D0130A936A80CA70CA60C3A
:101B5800890BA82D0130AA002A08AC07A32D260856
:101B6800F2002708F3002808F4002C08AA002A0825
:101B7800F5002D08AB002B08F6008F319C27720862
:101B88002000A6007308A7007408A8000800F41F26
:101B9800E22D72092000A0007309A1007409A200B7
:101BA800A00A0319A10A0319A20A00302007F200AB
:101BB8000030213DF3008030223DF400F71FF92D5D
:101BC80075092000A0007609A1007709A200A00AE3
:101BD8000319A10A0319A20A00302007F5000030F2
:101BE800213DF6008030223DF7008030F406803039
:101BF800F70677087402031D080076087302031DB0
:101C080008007508720208005D302000E0006008D6
:101C1800E30002308B317E238E3136308B317E23C8
:101C28008E312000630886008701403FE000413F75
:101C3800E100423FE2001030E236E10CE00C890B93
:101C4800202E60088B317E238E31200063088600A9
:101C58008701403FE000413FE100423FE200083099
:101C6800E236E10CE00C890B342E60088B317E23C0
:101C78008E31200063088600870101088B317E239E
:101C88008E3103308B317E23080002308B317E2366
:101C98008E3135308B317E238E3173082000A000C1
:101CA8007408A1007508A2007608A3001830A400E3
:101CB800A337A20CA10CA00CA40B5C2E20088B311E
:101CC8007E238E3173082000A0007408A1007508D7
:101CD800A2007608A3001030A400A337A20CA10C20
:101CE800A00CA40B712E20088B317E238E31730833
:101CF8002000A0007408A1007508A2007608A300BF
:101D08000830A400A337A20CA10CA00CA40B862EAB
:101D180020088B317E238E3173088B317E238E31E0
:101D280003308B317E230800F300731C9E2E2100A4
:101D38001D15A02E21001D117308F200013003109B
:101D4800F21B0314F20C890BA32E721CAE2E210079
:101D58009D15B02E21009D117308F200023003106A
:101D6800F21B0314F20C890BB32E721CBE2E210039
:101D78001D16C02E21001D127308F2000330031037
:101D8800F21B0314F20C890BC32E721CCE2E2100F9
:101D98009D16D02E21009D127308F2000430031006
:101DA800F21B0314F20C890BD32E721CDE2E2100B9
:101DB8001D17E02E21001D130D30F200F20BE22E4C
:101DC80021009D149D1C0800E62E00302000A40070
:101DD8000030A3000030A2000030A1007508740490
:101DE800730472040319332FA501A50AF51B082FE4
:101DF8000130F235F30DF40DF50D890BFD2E013090
:101E0800A0002008A507FA2E0130A135A20DA30DC8
:101E1800A40D890B092F75087902031D1D2F74085D
:101E28007802031D1D2F73087702031D1D2F7208EA
:101E38007602031C282F7208F6027308F73B740811
:101E4800F83B7508F93B21140130F536F40CF30C16
:101E5800F20C890B292F0130A502031D082F240835
:101E6800F5002308F4002208F3002108F200080016
:101E780020005D08F3005C08F2000330F400003035
:101E8800F5008B31F9238F3120005A08720784003E
:101E98005B08733D8500003FDE00013FDF00023F25
:101EA800E0005C085D040319952FFF30DC07FF3064
:101EB800DD3D5D08F3005C08F2000330F4000030FB
:101EC800F5008B31F9238F3120005A0872078400FE
:101ED8005B08733D8500003FCA00013FCB00023F0D
:101EE800CC005E08A4005F08A5006008A60057089B
:101EF800A7005808A8005908A90084319D248F31EB
:101F080020002408CD002508CE002608CF00833104
:101F1800A7238F3120004A08DE004B08DF004C0859
:101F2800542F5E08D7005F08D8006008D900080061
:101F380075080319A42F740873047204031DB52FC0
:101F48000030F2000030F3000030F40008000130E7
:101F5800F7007708F5070130F436F30CF20C890B1B
:101F6800B02FFE3074050319CE2FAB2F0130F700C8
:101F78007708F5070130F207003003180130F3073E
:101F8800003003180130F4070130F436F30CF20C7A
:101F9800890BC92FFF3074050319DB2FBA2F0130C5
:101FA800F5020130F235F30DF40D890BD62FF31B32
:101FB800E12F023075020318D32F7518E92FFF306F
:101FC800F2057F30F305FF30F4050310F50C7508B2
:101FD800F700F801F9011030F735F80DF90D890B04
:101FE800F02F7708F2047808F3047908F4047608E7
:081FF80003190800F4170800AA
:020000040001F9
:04000E00E4C9FFDD65
:00000001FF
