:0400000080317728AC
:100008007E14803120007F08FD002100911E2228E7
:100018002000911E222823001908FC0020002A082D
:10002800203E860087017C0881000130FC007C08A6
:10003800AA0708302A060319AA0191122100111CE7
:1000480029282000111C292811102100921E4A2855
:100058002000921E4A281608BD001708BE00890D08
:10006800893B8909BF00B91B48283708F0003808C0
:10007800F1003908F2003D08F3003E08F4003F089B
:10008800F500803194208031200092122100121F47
:100098006B282000121F6B281608B7001708B80035
:1000A800890D893B8909B900BF1B69283D08F00003
:1000B8003E08F1003F08F2003708F3003808F40062
:1000C8003908F50080319420803120001213210076
:1000D800911C72282000911C722891107D08200024
:1000E800FF007E10090080317928A001A101A2013A
:1000F800A301A401A501A601A701A801A901AA01BC
:10010800AB01E5308400813085003730860000304F
:10011800870009308131F6217E1020008031F228D5
:100128008B13FF302000BD00FF30BE00FF30BF0042
:10013800FF30B700FF30B800FF30B9008B177208E6
:10014800803AF6007508803A7602031DB1287408D3
:100158007102031DB128730870020318D1287308AF
:10016800F6007408F7007508F8007009F9007109BD
:10017800FA007209FB00F90A0319FA0A0319FB0AC3
:100188007908F6077A08F73D7B08F83D7608BA0043
:100198007708BB007808BC0008007308F6007408EC
:1001A800F7007508F8007009F9007109FA0072097A
:1001B800FB00F90A0319FA0A0319FB0A7908F6077A
:1001C8007A08F73D7B08F83DFF307607BA00FF3024
:1001D800773DBB000030783DBC0008003930200076
:1001E800B3008E30B4003F30B5008B1381316021ED
:1001F800803181317D2180310B178B179E30200093
:10020800AD008130AE0081313D2180318131D32173
:100218008031003A03192F298131C0218031200013
:10022800B0003008B6002929FF30AD00FF30AE001D
:100238008131AA2180312F29A4302000AD008130DE
:10024800AE0081313D2180312F2920003608673AE0
:1002580003191829202929302000B2009630B1004E
:10026800A630B000B00B3629B10B3629B20B3629AF
:10027800022902308131EE21813131308131EE2184
:10028800813120002D0884002E08850012000319F2
:100298005C2920002D0884002E0885000008813183
:1002A800EE21813101302000AD070030AE3D4529F7
:1002B80003308131EE21080020008C010730230033
:1002C8008C00073021008C0020008D013030230085
:1002D8008D003A3021008D009513083024008D00E0
:1002E80021001910991099111916991619179917AB
:1002F800080022009D131E1023009E161E129D1733
:100308001D161E129D171E119F1133309B002000D1
:10031800911E9129230019088B29210091160800A4
:100328007E344234373467344B346D347D3446344C
:100338007F346F34683465346C346C346F34003413
:100348006534723472346F3472340034023081315F
:10035800EE21813133308131EE21813120002E08A8
:100368008131EE21813120002D088131EE2181314A
:1003780003308131EE21080020002B08203E860042
:1003880087010108AC002C08AD000130AC002C0836
:10039800AB0708302B060319AB012D080800200015
:1003A8002A08803AAC002B08803AAC020318E129ED
:1003B8002B03FF3A2A07083E08002B03FF3A2A07B7
:1003C8000800FF34FF34FF34FF34FF34FF34FF34B8
:1003D800FF34FF342000AC002C0823009A009E183C
:1003E8000800F329FE0012001E00FE0BF729003456
:020000040001F9
:04000E00E4C9FFDD65
:00000001FF
