:0400000080317728AC
:100008007E14803120007F08FD002100911E2228E7
:100018002000911E222823001908FC0020004B080C
:10002800413E860087017C0881000130FC007C0885
:10003800CB0708304B060319CB0191122100111C84
:1000480029282000111C292811102100921E4A2855
:100058002000921E4A281608BE001708BF00890D06
:10006800893B8909C000BA1B48283808F0003908BC
:10007800F1003A08F2003E08F3003F08F400400897
:10008800F500813109218031200092122100121FD0
:100098006B282000121F6B281608B8001708B90033
:1000A800890D893B8909BA00C01B69283E08F00000
:1000B8003F08F1004008F2003808F3003908F4005E
:1000C8003A08F500813109218031200012132100FE
:1000D800911C72282000911C722891107D08200024
:1000E800FF007E10090080317928C101C201C301D7
:1000F800C401C501C601C701C801C901CA01CB01B4
:10010800CC01E43084008230850033308600003032
:1001180087000E308231FA227E1020008031942828
:100128008B138231522280313330860000308700B1
:100138002D3084000030850005302000AA0016000C
:100148001A00AA0BA32882316F2280310B178B1754
:100158008231C2228031003A0319FB288231AF2252
:1001680080312000AA002A08B200F028113082311C
:100178009C22803122302000A1002230A20082314E
:100188008622803133302000A1003330A200333082
:10019800A3008131F821803144302000A40044308C
:1001A800A3004430A2004430A1008131672180318E
:1001B80010302000A1004930A2004030A300813156
:1001C800B7218031F928DE302000A1008230A2005A
:1001D80082312F228031F92820003208003A031991
:1001E800F928673A0319BA28E7282000B20129300C
:1001F8002000AC009630AB00A630AA00AA0B02295A
:10020800AB0B0229AC0B0229AC288B13FF30200062
:10021800BE00FF30BF00FF30C000FF30B800FF3025
:10022800B900FF30BA008B177208803AF6007508DB
:10023800803A7602031D262974087102031D2629B7
:1002480073087002031846297308F6007408F7004B
:100258007508F8007009F9007109FA007209FB00C5
:10026800F90A0319FA0A0319FB0A7908F6077A0842
:10027800F73D7B08F83D7608BB007708BC00780896
:10028800BD0008007308F6007408F7007508F80048
:100298007009F9007109FA007209FB00F90A0319DB
:1002A800FA0A0319FB0A7908F6077A08F73D7B086A
:1002B800F83DFF307607BB00FF30773DBC000030CB
:1002C800783DBD00080002308231F222813135309C
:1002D8008231F222813120002108A5002208A600DF
:1002E8002308A7002408A8001830A900A837A70CDD
:1002F800A60CA50CA90B7A2925088231F222813196
:1003080020002108A5002208A6002308A700240829
:10031800A8001030A900A837A70CA60CA50CA90B9B
:100328008F2925088231F222813120002108A50079
:100338002208A6002308A7002408A8000830A9005E
:10034800A837A70CA60CA50CA90BA429250882314F
:10035800F2228131200021088231F22281310330DA
:100368008231F222080021302000A4002408A700CE
:1003780002308231F222813136308231F2228131EB
:100388002000270886008701403FA400413FA500C0
:10039800423FA6001030A636A50CA40C890BCF2925
:1003A80024088231F2228131200027088600870143
:1003B800403FA400413FA500423FA6000830A636B2
:1003C800A50CA40C890BE32924088231F22281317F
:1003D800200027088600870101088231F222813136
:1003E80003308231F222080002308231F222813158
:1003F80034308231F222813120002108A400220801
:10040800A5002308A6001030A700260DA60CA50CF1
:10041800A40CA70B092A24088231F222813120007A
:100428002108A4002208A5002308A6000830A70078
:10043800260DA60CA50CA40CA70B1C2A2408823197
:10044800F2228131200021088231F22281310330E9
:100458008231F222080002308231F22282313130B8
:100468008231F2228231200021088400220885008E
:10047800120003194E2A2000210884002208850052
:1004880000088231F222823101302000A1070030B9
:10049800A23D372A03308231F222080020008C0165
:1004A800073023008C00073021008C0020008D01CC
:1004B800303023008D003A3021008D00951308302C
:1004C80024008D00210019109910991119169916F8
:1004D80019179917080022009D131E1023009E1655
:1004E8001E129D171D161E129D171E119F113330C7
:1004F8009B002000911E832A230019087D2A2100D1
:100508009116080002308231F22282313330823172
:10051800F2228231200022088231F2228231200028
:1005280021088231F222823103308231F22208001E
:100538002000A10002308231F22282313230823131
:10054800F2228231200021088231F22282310330E6
:100558008231F222080020004C08413E86008701C3
:100568000108A0002008A1000130A0002008CC0745
:1005780008304C060319CC012108080020004B085C
:10058800803AA0004C08803AA0020318D02A4C03F5
:10059800FF3A4B07083E08004C03FF3A4B07080098
:1005A8008134BD34C8349834B43492348234B93484
:1005B800803490346534723472346F347234003459
:1005C8006534723472346F347234FF34FF34FF345C
:1005D800FF34FF34FF34FF34FF34FF342000A00021
:1005E800200823009A009E180800F72AFE0012002F
:0805F8001E00FE0BFB2A00347B
:020000040001F9
:04000E00E4C9FFDD65
:00000001FF
