:1000000080315528E63008007E14803120007F08BA
:10001000F1002100911E22282000911E2228230099
:100020001908F0007A08593E86008701700881009F
:100030000130F0007008FA070730F0007008FA0588
:10004000200091122100111C29282000111C2928B0
:1000500011102100921E39282000921E392867189D
:1000600038281708E6001608E500E718E7156714B2
:1000700092122100121F49282000121F4928E71858
:1000800048281708E2001608E10067186715E7140A
:1000900012132100911C50282000911C502891100F
:1000A00071082000FF007E10090080315728FA01F6
:1000B000FB01593084000030850011308F31DD277D
:1000C00080318F31D3278031EA008F31D4278031BE
:1000D000EB008F31D5278031EC008F31D627ED0032
:1000E0007E102000803174282000D101D2010B1332
:1000F0008B138731002780318F31E32780318F3197
:10010000F62780318731E6278031873120278031FB
:100110008731D92780318731CC27803187317327C8
:1001200080318F31D72780310B178B170330200098
:10013000C4000830C3007830C200C20B9D28C30B36
:100140009D28C40B9D288B132000E718671CE82A04
:10015000671DB2286608F3006508F2006208F50022
:100160006108BB28E71DCD286208F3006108F20092
:100170006608F5006508F40086318926803172082A
:100180002000C2007308C300C336C20CC336C20CC1
:100190004208CE004308CF00D001F030C200420830
:1001A000E70587318A27803175082000A10074088F
:1001B000A0000530A2000030A30087313F27803126
:1001C00020002008EA002108EB00EC010130C20009
:1001D000EC37EB0CEA0CC20BE828EA09EB09EC0956
:1001E000EA0A0319EB0A0319EC0A73308731BF27B7
:1001F000803121001B08F5001C08F600F70186314C
:100200005726803185313C25803120003908D300C4
:100210003A08D4003B08D50080310220803120000C
:10022000C200C301C4014208C5004308C600440817
:10023000C7004508A4004608A5004708A6005308C3
:10024000A7005408A8005508A9008631B3268031BC
:1002500020002408D6002508D7002608D8006430DE
:10026000AD000030AE000030AF004F08A3004E08D4
:10027000A2008F31EC2780312000C2000030C21B69
:10028000FF30C300C4004208A4004308A50044088E
:10029000A6005608A7005708A8005808A9008631EC
:1002A000B326803120002408B0002508B1002608BC
:1002B000B20084311F24803120002D08C8002E0890
:1002C000C9002F08CA006430AD000030AE00003015
:1002D000AF004F08F8004E08F70084318A248031BF
:1002E0002000C2000030C21BFF30C300C40042081F
:1002F000A4004308A5004408A6005608A700570814
:10030000A8005808A9008631B326803120002408AF
:10031000B0002508B1002608B20084311F248031C6
:1003200020002D08CB002E08CC002F08CD00433034
:100330008731BF27803121001B08F5001C08F6001B
:10034000F7018631572680316F308731BF278031E2
:1003500020006A08F5006B08F6006C08F70086318B
:100360005726803163308731BF2780312000530802
:10037000F5005408F6005508F700863157268031FD
:1003800041308731BF27803120005608F5005708DB
:10039000F6005808F70086315726803172308731D1
:1003A000BF27803120004808F5004908F6004A08B8
:1003B000F70086315726803152308731BF27803190
:1003C00020004B08F5004C08F6004D08F700863178
:1003D0005726803120008C11CC2AFF30F500FF30E9
:1003E000F600FF30F7008631DA2680310030200039
:1003F000B900BA00863123268031F301F4010030C0
:1004000087319D278031E62A5F30F5005E30F600A7
:10041000E730F7008631DA268031E8302000AD0081
:100420000330AE000030AF005308B0005408B100F4
:100430005508B20084311F24803120002E08BA00F4
:100440002D08B9008631232680311F302000C200DC
:100450004208F300F401003087319D278031E62AFD
:100460007F30F5005530F600EF30F7008631DA26A0
:100470008031E8302000AD000330AE000030AF0026
:100480004808B0004908B1004A08B20084311F246E
:10049000803120002E08BA002D08B90086312326AD
:1004A0008031F301F4011F3087319D278031E62A26
:1004B0006F30F500DD30F600FA30F7008631DA26CD
:1004C0008031E8302000AD000330AE000030AF00D6
:1004D0005608B0005708B1005808B20084311F24F4
:1004E000803120002E08BA002D08B900863123265D
:1004F0008031F3011F302000C2004208F4000030B8
:1005000087319D278031E62A6F30F500DD30F60017
:10051000FA30F7008631DA268031E8302000AD006D
:100520000330AE000030AF004B08B0004C08B10003
:100530004D08B20084311F24803120002E08BA00FB
:100540002D08B900863123268031F3011F302000A9
:10055000C2004208F4001F3087319D278031E62A0F
:100560006F30F500DD30F600FF30F7008631DA2617
:10057000803120004608BA004508B900863123269C
:1005800080311F302000C2004208F300F4011F3008
:1005900087319D278031E62A20005208003A03194E
:1005A000D22AED295108003A0319ED29013A03191D
:1005B000042A033A0319B02A063A0319582A013AC1
:1005C0000319302A033A0319842AED2920008C15D7
:1005D0008D1D671A0A2B0130D1070030D23D07303C
:1005E000F2000030F3005208F5005108F4008531A4
:1005F000DE25803173082000D2007208D100671612
:100600006830C300E430C200C20B042BC30B042BC0
:1006100000009528EF302000C2004208E705952829
:10062000F200F21F1D2B20000C170000000000003C
:10063000000020000C130000252B20000C170000E8
:1006400020000C13000000000000721F312B20005E
:100650000C17000000000000000020000C13000038
:10066000392B20000C17000020000C1300000000A4
:100670000000F21E452B20000C17000000000000B7
:10068000000020000C1300004D2B20000C17000070
:1006900020000C13000000000000721E592B2000E7
:1006A0000C17000000000000000020000C130000E8
:1006B000612B20000C17000020000C13000000002C
:1006C0000000F21D6D2B20000C1700000000000040
:1006D000000020000C130000752B20000C170000F8
:1006E00020000C13000000000000721D812B200070
:1006F0000C17000000000000000020000C13000098
:10070000892B20000C17000020000C1300000000B3
:100710000000F21C952B20000C17000000000000C8
:10072000000020000C1300009D2B20000C1700007F
:1007300020000C13000000000000721CA92B2000F8
:100740000C17000000000000000020000C13000047
:10075000080020000C17000020000C13000000000F
:1007600000000800F300F4010830740203180800C8
:100770007308F200740ABD2BF236890BBC2B721C75
:10078000C42B20008C17C62B20008C130000000007
:100790000000000000000000000000000000000059
:1007A0000000000000000000000000000000000049
:1007B0000000000000000000000000000000000039
:1007C0000000000000000000000000000000000029
:1007D00000000000000000000000000020000C16D7
:1007E0000000000000000000000000000000000009
:1007F00000000000000000000000000000000000F9
:1008000000000000000000000000000000000000E8
:1008100000000000000000000000000000000000D8
:1008200000000000000000000000000000000000C8
:1008300020000C120130F2007208F407B42B2000E3
:10084000B501AF1F2D2CAD09AE09AF09AD0A0319D3
:10085000AE0A0319AF0AB501B50AB21F3B2CB009A5
:10086000B109B209B00A0319B10A0319B20A013079
:10087000B3003308B5060030B6000030B7000030D2
:10088000B8002F082E042D040319782CB401B40AE3
:10089000AF1B552C0130AD35AE0DAF0D890B4B2C78
:1008A0000130B3003308B407482C0130B635B70D1A
:1008B000B80D890B562C2F083202031D652C2E080B
:1008C0003102031D652C2D083002031C6E2C2D08EF
:1008D000B0022E08B13B2F08B23B36140130AF36C0
:1008E000AE0CAD0C890B6F2C0130B402031D552CDE
:1008F00035080319832CB609B709B809B60A0319D4
:10090000B70A0319B80A3608AD003708AE00380830
:10091000AF0008007808803AF90081307902031DA1
:10092000932C91307702031C9A2C7030F707FE301D
:10093000F83D8A2C7808803AF90081307902031D4D
:10094000A32C2D307702031CB42C90302000A00083
:100950000130A1007708A0027808A13B2008873168
:10096000FB27FF3A013E08007808803AF900803002
:100970007902031DBD2CC9307702031CCE2C7808E8
:100980002000A1007708A0003830A007FF30A13D6B
:1009900020088731FB27FF3A013E08007808803A9B
:1009A000F90080307902031DD72C65307702031CD3
:1009B000E62CC8302000A0000030A1007708A0027B
:1009C0007808A13B20088731FB270800770887318A
:1009D000FB2708002000A101F31FF52CF209F30901
:1009E000F20A0319F30AA101A10AF51F002DF40967
:1009F000F509F40A0319F50A0130F6007608A10694
:100A0000A201A3017208730403192F2DA001A00AEB
:100A1000F31B142D0130F235F30D890B0B2D013032
:100A2000F6007608A007082D0130A235A30D890B2A
:100A3000152D73087502031D1F2D72087402031C07
:100A4000262D7208F4027308F53B22140130F336A8
:100A5000F20C890B272D0130A002031D142D210853
:100A60000319372DA209A309A20A0319A30A23080F
:100A7000F3002208F200080021009E17073085319C
:100A80008D25853100302000AD000430AE000030EF
:100A9000AF006A08BC006B08BD006C08BE006D08A2
:100AA00021001B072000A00021001C0803181C0ABD
:100AB0002000A1000530A2000030A30087313F27AD
:100AC000853120002008BF002108C000C1013F0877
:100AD000BC074008BD3D4108BE3D3C08A4003D08A0
:100AE000A5003E08A600E830A7000330A8000030AB
:100AF000A9008631B326853120002408B0002508DE
:100B0000B1002608B20084311F2420002D08B9004E
:100B10002E08BA002F08BB000800F300731C932DA9
:100B200021001D15952D21001D117308F2000130C3
:100B30000310F21B0314F20C890B982D721CA32DC9
:100B400021009D15A52D21009D117308F200023092
:100B50000310F21B0314F20C890BA82D721CB32D89
:100B600021001D16B52D21001D127308F20003305F
:100B70000310F21B0314F20C890BB82D721CC32D49
:100B800021009D16C52D21009D127308F20004302E
:100B90000310F21B0314F20C890BC82D721CD32D09
:100BA00021001D17D52D21001D130D30F200F20B71
:100BB000D72D21009D149D1C0800DB2DF801F51F89
:100BC000E82DF409F509F40A0319F50AF801F80A01
:100BD000F31FEF2DF209F309F20A0319F30A720861
:100BE00073040319162EF701F70AF31B012E0130C7
:100BF000F235F30D890BF82D0130F6007608F70772
:100C0000F52D73087502031D072E72087402031C6C
:100C10000D2E7208F4027308F53B0130F336F20C26
:100C2000890B0E2E0130F702031D012E78080319DF
:100C30001E2EF409F509F40A0319F50A7508F300E4
:100C40007408F20008002000BC013C08803A7C3E99
:100C5000031808000A30F2000030F3003A08F500EB
:100C60003908F4008531DE25863173088500720865
:100C70008400F13084078730853D00088331B2233A
:100C800086310A30F2000030F30020003A08F50007
:100C90003908F4008431EA24863173082000BA0050
:100CA0007208B9000130BB003B08BC07252E02309A
:100CB0008731AF27863134308731AF2786317508C9
:100CC0002000A0007608A1007708A2001030A30041
:100CD000220DA20CA10CA00CA30B682E20088731BA
:100CE000AF27863175082000A0007608A10077089C
:100CF000A2000830A300220DA20CA10CA00CA30B93
:100D00007B2E20088731AF27863175088731AF27C2
:100D1000080075087302031D8F2E740872020318F1
:100D20009F2E7209F6007309F700F60A0319F70AF5
:100D300074087607F2007508773DF3000800720921
:100D4000F6007309F700F60A0319F70A7408760724
:100D5000F8007508773DF9007808FF3EF200FF3093
:100D6000793DF300080000302000AA000030AB00FD
:100D70000030AC00241CC22E2708AA072808AB3D6F
:100D80002908AC3D0130A735A80DA90D890BC32E4C
:100D90000130A636A50CA40C890BC92E2608250403
:100DA0002404031DBA2E2A08A4002B08A5002C0831
:100DB000A600080075082000A0007608A1007708AA
:100DC000A2001030A236A10CA00C890BE22E200844
:100DD0008331B223863175082000A0007608A10077
:100DE0007708A2000830A236A10CA00C890BF32EC4
:100DF00020088331B223863175088331B22308007D
:100E000020008C01073023008C00073021008C006B
:100E100020008D01303023008D003A3021008D00FC
:100E20009513083024008D00210019109910991194
:100E30001916991619179917270095168B1508007A
:100E400022001D1421000D14FF3020009B003030C3
:100E5000250093000C30F200720893047F3091005B
:100E6000131693161E149E102000931028001710BE
:100E7000971017152000931021000D100800F8019D
:100E8000F9012000201C482F2208F8072308F93D0B
:100E90000130A235A30D890B492F0130A136A00CDA
:100EA000890B4E2F20082104031D412F7908A10032
:100EB0007808A0000800F5006400230095185C2F56
:100EC0007508F200F30172089100730892003F3038
:100ED000F400740895051514031015180314003058
:100EE000093D1308080022009D131E1023009E16C2
:100EF0001E129D171D161E129D171E119F113330B5
:100F00009B002000911E872F23001908812F2100AC
:100F10009116080021009E171F3085318D25210074
:100F20001C08F7001B08F600F635F70DF635F70D2F
:100F30007608F4007708F5000800F500750883319D
:100F4000102387317308833110238731740883316C
:100F5000102320001708E4001608E3000800F4003E
:100F6000740823009A009E1CB32F0B30F3006230EC
:100F7000F200F20BB92FF30BB92F00000800F500B7
:100F800002308731AF27873136308731AF2787313D
:100F900075088731AF27080022001410941014122E
:100FA0009412941721001217200012132200931795
:100FB00008002200121492101212921692172100A9
:100FC0009216200092122200911708002000181398
:100FD00098131816981221001114200011101814DB
:100FE00008008134BD34133419342D34493441346C
:100FF0009D3401340934F600760887315B270800F8
:101FA6002C34CF34FF340734FA01FA03FB01200046
:101FB600E9010800640080010131890BDE2F00343D
:101FC600220017149710171197119717171B08005F
:101FD600E92F20002208643EF7000030233DF80078
:101FE60084318A24080021009E131E129E161E1795
:0A1FF6001E109E101E111D1408009D
:020000040001F9
:04000E00E4C9FFDD65
:10E0000000000200030005000600080009000B00E4
:10E010000D000E0010001100130014001600170070
:10E0200019001A001C001D001F0020002200230000
:10E0300025002600280029002B002C002D002F0091
:10E0400030003200330034003600370038003A0028
:10E050003B003C003D003F004000410042004300C7
:10E06000440046004700480049004A004B004C006D
:10E070004D004E004F00500051005200530054001C
:10E0800054005500560057005800580059005A00D7
:10E090005A005B005C005C005D005E005E005F009B
:10E0A0005F0060006000600061006100620062006B
:10E0B0006200630063006300630063006400640047
:10E0C000640064006400640064000000000000005C
:00000001FF
